:020000040800F2
:10000000D805002045010008D32700080325000873
:10001000D1270008130E0008592A0008000000002C
:10002000000000000000000000000000F7270008AA
:100030006510000800000000F5270008F9270008F7
:100040005F0100085F0100085F0100085F01000810
:100050005F0100085F0100085F0100085F01000800
:100060005F0100085F0100085F0100085F010008F0
:100070005F0100085F0100085F0100085F010008E0
:100080005F0100085F0100085F0100085F010008D0
:10009000C92900085F0100085F0100085F0100082E
:1000A0005F0100085F0100085F0100085F010008B0
:1000B0005F0100085F010008B92800085F0100081F
:1000C0005F0100085F0100085F0100085F01000890
:1000D0005F0100085F0100085F0100085F01000880
:1000E0005F0100085F0100085F0100085F01000870
:1000F0005F0100085F0100085F0100085F01000860
:100100005F0100085F010008C52800085F010008C2
:100110005F0100085F0100085F0100085F0100083F
:100120005F0100085F0100085F0100085F0100082F
:10013000DFF80CD000F018F8004800477D2A0008CE
:10014000D80500200648804706480047FEE7FEE73E
:10015000FEE7FEE7FEE7FEE7FEE7FEE7FEE7FEE777
:100160007128000831010008064C074D06E0E068E0
:1001700040F0010394E8070098471034AC42F6D3EE
:10018000FFF7DAFFC02B0008E02B00082DE9F04153
:100190000E4E0025307858B10124DFF83480002756
:1001A00004EB840101EB08000179012903D007E089
:1001B0002846BDE8F08107710021204600F09CFB35
:1001C000641CE4B2172CEBD33770F1E71100002068
:1001D000080100202DE9F047384D002401220221BA
:1001E000284601F076FCDFF8D8900122202148460D
:1001F00001F06FFC334E01228021304601F069FC92
:1002000001222021304601F064FC01220821304601
:1002100001F05FFC01220221304601F05AFC01226C
:100220000421484601F055FC01221146484601F0E0
:1002300050FC012296033146484601F04AFC224F09
:1002400001224021384601F044FC4FF4805801223D
:100250004146384601F03DFC01223146384601F066
:1002600038FC012297023946284601F032FC01226F
:100270004146284601F02DFC01223146284601F076
:1002800028FC124D01221102284601F022FC012215
:100290003946284601F01DFC01224146284601F05E
:1002A00018FC01223146284601F013FC01224021AE
:1002B000484601F00EFC2046BDE8F087000C0140E6
:1002C00000100140000801400018014000140140E6
:1002D0002DE9FC414FF00008174E0124454600BFB0
:1002E00006EB4407787801281AD100950C2C01D22E
:1002F000601E00E0A01EC0B28DF804000E482E3033
:1003000010F814008DF8050016F8140078B18DF877
:1003100006500A4807226946007800F089FE7D7081
:10032000641CE4B2172CDBD34046BDE8FC810120FD
:100330008DF80600EDE700007B0100201000002092
:100340002DE9FC47134D4FF0000ADFF84C900124D3
:100350005646A5F12E0800BF05EB44077878012822
:1003600011D100968DF8044015F814008DF80500A1
:1003700018F814008DF806000722694699F8000065
:1003800000F056FE7E70641CE4B2172CE4D3504695
:10039000BDE8FC87A9010020100000202DE9F84FDE
:1003A00000209B4D00904021284601F08DFB994C88
:1003B00001272179884200D067712021284601F069
:1003C00083FBA179884200D0E7711021284601F013
:1003D0007BFB217A884200D067720821A846284614
:1003E00001F072FBA17A884200D0E7728A4D802129
:1003F000284601F069FB217B884200D067734021C9
:10040000284601F061FBA17B884200D0E7732021E0
:10041000284601F059FB217C884200D067741021E6
:10042000284601F051FBA17C884200D0E7740821E6
:10043000284601F049FB217D884200D067750421E0
:10044000284601F041FBA17D884200D0E7750121DB
:10045000284601F039FBA17E884200D0E7766F4E36
:100460004FF48051304601F02FFB217F884200D0AD
:1004700067774FF40061304601F026FBA17F884288
:1004800000D0E7774FF48061B146304601F01CFBA5
:1004900094F82010884201D084F82170604E4FF407
:1004A0000041304601F010FB94F82210884201D040
:1004B00084F823704FF48061304601F005FB94F816
:1004C0002410884201D084F825704FF4007B5946EF
:1004D000304601F0F9FA94F82610884201D084F8E9
:1004E00027704FF48071B246304601F0EDFA94F86F
:1004F0002810884201D084F829705E465946484643
:1005000001F0E2FA94F82A10884201D084F82B70A6
:100510004FF4807B5946484601F0D6FA94F82C10E7
:10052000884201D084F82D7040214746404601F0B2
:10053000CBFA04F8040F2021384601F0C5FAA07068
:100540001021384601F0C0FA20710821384601F028
:10055000BBFAA0718021284601F0B6FA2072402132
:10056000284601F0B1FAA0722021284601F0ACFA29
:1005700020731021284601F0A7FAA073082128460D
:1005800001F0A2FA20740421284601F09DFAA0741B
:100590000121284601F098FAA0754FF48051484691
:1005A00001F092FA20764FF40061484601F08CFA8F
:1005B000A0764FF480652946484601F085FA2077F9
:1005C00069015746504601F07FFAA0772946384620
:1005D00001F07AFA84F820003146384601F074FAC6
:1005E00084F822005D465946384601F06DFA84F8D9
:1005F00024003146484601F067FA84F8260029466F
:10060000484601F061FA84F828000098BDE8F88FA8
:10061000000C01407B01002000140140001001404B
:10062000000801402DE9F84F0020DFF874820090A7
:100630008021404601F048FA9A4C012521798842F0
:1006400000D06571DFF860A20121504601F03CFA4C
:10065000A179884200D0E571944E1021304601F016
:1006600033FA217A884200D06572914F4021384692
:1006700001F02AFAA17A884200D0E57210213846AA
:1006800001F022FA217B884200D06573042188485A
:1006900001F01AFAA17B884200D0E57308213046A8
:1006A00001F012FA217C884200D0657402213046A4
:1006B00001F00AFAA17C884200D0E5744FF40049A9
:1006C0004946304601F000FA217D884200D0657528
:1006D0004FF400573946B346304601F0F5F9A17D95
:1006E000884200D0E5753E463946404601F0ECF9B7
:1006F000A17E884200D0E5764946694801F0E4F9D8
:10070000217F884200D065774FF4006157465046FC
:1007100001F0DAF9A17F884200D0E577B046314692
:10072000384601F0D1F994F82010884201D084F8BD
:1007300021504E464946BA46384601F0C5F994F86C
:100740002210884201D084F823505A4F4FF4007190
:10075000384601F0B9F994F82410884201D084F8A1
:1007600025504FF400694946384601F0ADF994F838
:100770002610884201D084F827504146384601F0BF
:10078000A3F994F82810884201D084F82950314602
:10079000484801F099F994F82A10884201D084F869
:1007A0002B508021584601F08FF994F82C10884284
:1007B00001D084F82D508021394801F085F904F8E2
:1007C000040F0121D346504601F07EF9A07010219C
:1007D000364801F079F9364D20714021284601F064
:1007E00073F9A0711021284601F06EF920720421DE
:1007F000284601F069F9A07208212C4801F064F93B
:1008000020730221294801F05FF9A073B2463146F6
:10081000264801F059F9207445464146234801F025
:1008200053F9A07429461E4801F04EF9A0755146AF
:100830001B4801F049F920764E464946584601F0DA
:1008400043F9A0762946584601F03EF920775146F3
:10085000584601F039F9174FA0774FF40071384628
:1008600001F032F984F820003146384601F02CF9C5
:1008700084F822002946384601F026F984F824003D
:100880005146384601F020F984F8260080210748B7
:1008900001F01AF984F828000098BDE8F88F0000EC
:1008A00000180140A9010020000C01400010014087
:1008B000000801400014014070B50546049C00206A
:1008C000162C01D9012070BD0B2C01D2641C00E054
:1008D000A41CE4B204EB8406054CA55534446170B5
:1008E000A270044AE37001212171117070BD0000F3
:1008F00008010020110000202DE9FE4F0021029187
:10090000162802D90120BDE8FE8F002100918DF844
:1009100004000B2801D2411E00E0811EFE4F8DF81D
:1009200004107B149A10FD4CDFF8F483DFF8F49385
:10093000FD4D1101FD4E4FF4804A4FF4806B172896
:1009400075D2DFE800F0740C28415B758EA7C1D921
:10095000FEFCFBFAF9F8F7F6F5F4F3F2F1004FF4C8
:100960000071B846384601F0AFF806464FF480777C
:1009700000223946404601F0ACF80A2000F09EFF04
:1009800001223946404601F0A4F8012E4FD18DF8DE
:100990000560802116E08021384601F095F8064672
:1009A00000220221284601F094F80A2000F086FF78
:1009B00001220221284601F08CF8012EE6D18DF8A3
:1009C000056040212846B4E101212F46284601F068
:1009D0007BF8054600222021304601F07AF80A20F3
:1009E00000F06CFF01222021304601F072F8012D49
:1009F000CCD18DF80550202138469AE1102130469F
:100A000001F062F80646002280214746404601F088
:100A100060F80A2000F052FF01228021384601F0E0
:100A200058F8012EB2D18DF805601021CAE74BE1CC
:100A300040214746404601F047F806460022202163
:100A4000384601F046F80A2000F038FF0122202144
:100A5000384601F03EF8012E98D18DF80560082146
:100A6000B0E710214646404601F02EF80546002228
:100A70000821304601F02DF80A2000F01FFF012266
:100A80000821304601F025F8012D97D18DF8055049
:100A9000802117E004214646404601F015F805463E
:100AA00000220221304601F014F80A2000F006FF6F
:100AB00001220221304601F00CF8012D98D18DF869
:100AC00005504021484634E10821304600F0FCFF43
:100AD000054600220421304600F0FBFF0A2000F00A
:100AE000EDFE01220421304600F0F3FF012D99D1E3
:100AF0008DF805502021E5E70221304600F0E4FFA3
:100B0000054600220121304600F0E3FF0A2000F0F4
:100B1000D5FE01221146304600F0DBFF012D9BD1AE
:100B20008DF805501021CDE75BE142E126E10BE1B4
:100B3000D6E0B9E09DE080E066E04BE031E018E00F
:100B4000FFE7304600F0C0FF0546002257465146F9
:100B5000304600F0BEFF0A2000F0B0FE0122394608
:100B6000304600F0B6FF012D8FD18DF805500821D9
:100B7000A8E71946304600F0A7FF054600224021AD
:100B8000384600F0A6FF0A2000F098FE012240211E
:100B9000384600F09EFF012D90D18DF805500421BC
:100BA00090E71146384600F08FFF054600225E466A
:100BB0005946384600F08DFF0A2000F07FFE0122E2
:100BC0003146384600F085FF012D7DD18DF8055066
:100BD000022177E71946384600F076FF05464FF4C4
:100BE000805600223146384600F073FF0A2000F09C
:100BF00065FE01223146384600F06BFF012D63D1BE
:100C00008DF8055001215DE7B846384600F05CFFDD
:100C10000546002257465146404600F05AFF0A203A
:100C200000F04CFE01223946404600F052FF012DF3
:100C30004AD18DF80550290319E091461146A8467E
:100C4000284600F041FF054600225F4659464046CF
:100C500000F03FFF0A2000F031FE012239464046F5
:100C600000F037FF012D6DD18DF805504946304613
:100C70005FE01946A846284600F026FF05464FF4D7
:100C8000805700223946404600F023FF0A2000F03A
:100C900015FE01223946404600F01BFF012D51D1BF
:100CA0008DF805505946E2E789462E46284600F061
:100CB0000BFF0546002257465146304600F009FF1B
:100CC0000A2000F0FBFD00E03CE0012239463046FE
:100CD00000F0FFFE012D35D18DF8055049461AE090
:100CE0004FF400714E46484600F0EEFE05464FF4C4
:100CF000807700223946304600F0EBFE0A2000F0F3
:100D0000DDFD01223946304600F0E3FE012D19D108
:100D10008DF8055059460BE00018014010000020E6
:100D20000008014000140140000C01400010014087
:100D3000404600F0C9FE8DF806000722694620787B
:100D400000F076F90298DEE511464E46484600F07E
:100D5000BBFE054600225F465946304600F0B9FE0C
:100D60000A2000F0ABFD01223946304600F0B1FE0A
:100D7000012DE7D18DF805506902CCE719464E46A2
:100D8000484600F0A1FE05464FF480570022394640
:100D9000304600F09EFE0A2000F090FD0122394608
:100DA000304600F096FE012DCCD18DF80550290279
:100DB000B1E7484600F088FE0546002257465146F6
:100DC000484600F086FE0A2000F078FD01223946F0
:100DD000484600F07EFE012DB4D18DF80550690221
:100DE00045E78021304600F06FFE05460022402195
:100DF000304600F06EFE0A2000F060FD0122402126
:100E0000304600F066FE012D9CD18DF80550290278
:100E10002DE7FEE7F0B51B498DB00023D1E90001B5
:100E2000CDE90A011848012103250278ADF82820F0
:100E3000CDE905135001CDE9000340F2FF7407919D
:100E400018460AAF7FEA020637F81020401C7240AD
:100E500092B2144080B2A842F6D360010290022000
:100E600003900E200493CDE90810084800684169FA
:100E700041F0020141616946044800F0F5F80DB007
:100E8000F0BD0000B82B0008100000204400002036
:100E900070B51A481A4C00F124011A4D486300201D
:100EA00020700421284600F00FFE012803D120788D
:100EB00040F0080020700821284600F005FE0128B7
:100EC00003D1207840F0040020701021284600F063
:100ED000FBFD012803D1207840F002002070202182
:100EE000284600F0F1FD012803D1207840F00100F0
:100EF0002070BDE87040FFF78DBF0000200000208B
:100F0000100000200018014010B5002958D0826B55
:100F10004FF4D873046803EB0113E45814F004048D
:100F200094600468E4584DD0E40854600468E358C1
:100F300003F00203D3604FF4DA73046803EB011388
:100F4000E45804F00F04146111620468E358C3F319
:100F50000723D3614FF4DC73046803EB0113E458F7
:100F600014750468E458240A54750468E458240C81
:100F700094750468E3581B0ED3754FF4DE73046850
:100F800003EB0113E45814760468E458240A5476F9
:100F90000468E458240C94760468E3581B0ED37656
:100FA0000368202289B11A610268536923F0500353
:100FB000536190F83C20222A0DD0322A0BD00FE04A
:100FC000426BA5E7640D1460B0E7DA60026853690C
:100FD00023F00A03ECE70268536923F40F435361DB
:100FE00012220123002990F83C1006D0522915D076
:100FF000622916D0722906D115E042290ED0622945
:1010000008D0722908D080F83C3000BF00F06DFB9A
:10101000002010BD322107E0522105E080F83C207D
:10102000F4E7222100E0422180F83C10EEE70000C6
:1010300030B587B06B460090002003900492029078
:1010400004E00C5C1D18401C2C7580B29042F8D353
:1010500003484FF6FF71036300F048FB07B030BD53
:101060004400002070470000F0B50C7D012303FA16
:1010700004F20468D4F800524E6A25F47C5503EB60
:1010800006231D43C4F800520368D3F81C4294435E
:10109000C3F81C424FF41073CD691C1DBDB905681F
:1010A000D5F80C629643C5F80C628E894D684F697D
:1010B00066F31F45066803EBC707F5510E890D68F7
:1010C0004F6966F31F45066804EBC707F551CD6904
:1010D000012D17D10568D5F80C621643C5F80C62CE
:1010E0000E884D684F6966F31F45066803EBC7031A
:1010F000F5500D89CB684E6965F31F43056804EB15
:10110000C6042B518B69002B0368D3F8044211D01D
:1011100054EA0204C3F804420B69002B0368D3F8B5
:10112000144209D054EA0204C3F81442096A01299E
:1011300004D009E09443EDE79443F5E70168D1F862
:101140001C321343C1F81C320068D0F8001221F0A1
:101150000101C0F800120020F0BD70472DE9F041F8
:10116000044600680026C168C1F300134169C1F359
:10117000C002102113B10AB14E01C160206802699A
:101180004369C2F30012C3F380131AB113B146F4DA
:1011900080660161216848694FF00105C043C007BE
:1011A0004ED18A687648904323D000208B68754AD8
:1011B0009A4320D000228F68734BBB431DD000237D
:1011C000104318433CD088688A68C0F340008B689D
:1011D000C2F3402203F001031043184329D04A69A7
:1011E000204622F001024A6194F83C10122906D0F0
:1011F0000AE00120DAE70122DDE70123E0E70168E8
:101200004A6922F40F424A6190F83C10422908D002
:10121000522908D0722908D080F83C5000F04CFBCD
:1012200009E0222102E0322100E0622180F83C1036
:10123000F4E746F4006620688168544A11438160EF
:101240002168C868496910F0030FC1F3400104D058
:1012500019B100212046FFF757FE21680869496946
:1012600010F0030FC1F3001104D019B10121204681
:10127000FFF74AFE206C3043206420688169426990
:1012800011F0010F4369C2F30022C3F3C03305D04C
:1012900022B11BB1216C41F0010121648169C1F3CC
:1012A00040034169C1F340224169C1F3C0312BB110
:1012B00022B119B1216C41F0020121648169C1F3AD
:1012C000800341694269C1F38021C2F3C0322BB16E
:1012D00021B11AB1216C41F004012164816911F03E
:1012E000700F08D000224169C1F3C0234169C1F3E6
:1012F000C03112B121E00122F5E7F3B1E9B1816912
:1013000001F0700140292FD006DC102909D02029D6
:101310000BD030290DD123E0502929D0602908D1E4
:101320002AE0216C41F0080102E0216C41F010013B
:101330002164816921F070018161206C00280DD049
:1013400021680420486084F83C502068416948F6D0
:101350005B72914341612046FFF7FFFEBDE8F081DB
:10136000216C41F02001E3E7216C41F04001DFE70F
:10137000216C41F08001DBE7216C41F48071D7E7FB
:10138000010000040001000800000110090501002F
:101390002DE9F04104004FF0000504D094F83C0022
:1013A000002618B107E00120BDE8F08184F83D6017
:1013B000204600F083F8022084F83C002068016891
:1013C00021F0020101602068016841F00101016023
:1013D00000F084FB07464FF0030804E000F07EFBBA
:1013E000C01B0A2853D820684068C007F6D021687F
:1013F0004868C00758D0A069012801D145F0800590
:10140000E06901282FD025F04000226A012A2DD062
:1014100020F02000626A012A2BD020F01000A26A7E
:10142000012A29D020F00800E26A012A27D020F002
:1014300004000A6822F0FC0202430A60D4E90201B7
:101440000843D4E90412114308436168491E084364
:101450002168C8612068016821F00101016000F085
:101460003DFB054618E045F04000CEE740F0200087
:10147000D0E740F01000D2E740F00800D4E740F099
:101480000400D6E700F02AFB401B0A2804D904F820
:101490003C8F0320667087E720684068C007F1D161
:1014A00020684068C00703D0042084F83C007AE735
:1014B0002664012084F83C00002075E710B5006820
:1014C000114986B088421DD11048C16941F00071B0
:1014D000C161C0690E4C00F0007004904FF40060D0
:1014E00000900020019002906946204600F0F8F933
:1014F000A01400900220019003200390694620462A
:1015000000F0EEF906B010BD00640040001002408B
:10151000000801402DE9F84F17460D00044602D09F
:10152000012D2BD010E094F83C0022282ED094F806
:101530003C0042282AD000BF94F83C00622825D005
:1015400094F83C00722821D094F83D0001281DD069
:10155000012684F83D60622094F83C2072214FF00F
:1015600042094FF0220A4FF0520B95B1122A1AD0BD
:10157000222A19D0422A1AD0322015E094F83C00D1
:10158000322803D094F83C005228D5D10220BDE87F
:10159000F88F122A05D0322A06D0522A07D0504698
:1015A00002E0484600E0584684F83C0001E084F838
:1015B0003C1000F093FA4FF0000800900EE0781C09
:1015C0000CD02FB100F08AFA0099401AB84205D920
:1015D000032084F83C0084F83D80D8E72068EDB310
:1015E000D0F8100010F0030FE9D0C5B3D4F83800DC
:1015F0004FF4D871226801EB0511525812F0040221
:1016000082602268525850D0D208426022685158F5
:1016100001F00201C1604FF4DA71226801EB05119B
:10162000525802F00F02026122685158C1F307219B
:10163000C0E907154FF4DC71226801EB051152581F
:10164000027522685258120A427522685258120CCA
:10165000827522685158090EC17501E021E022E02F
:101660004FF4DE71226801EB0511525802762268B0
:101670005258120A427622685258120C8276226818
:101680005158090EC17620202268122185B11061BF
:1016900094F83C0052281FD0622820D0722810D124
:1016A0001FE0C0689EE7606BA2E7520D0260ADE7E5
:1016B000D06094F83C0042280ED0622808D07228EE
:1016C00008D084F83C6000BF84F83D8000205EE7CD
:1016D000322007E0584605E084F83C10F4E7504615
:1016E00000E0484684F83C00EEE770472DE9F05FE3
:1016F0000E46016804468868400105D488680001E8
:1017000002D48868C0006FD594F83D0001280CD041
:10171000012784F83D7094F83C00222808D0322834
:1017200008D062280ED0122005E00220BDE8F09F0C
:10173000422000E0522084F83C008868400103D534
:10174000002507E07220F6E78868000101D5012531
:1017500000E002254FF4C07000EB05100A5802F0BB
:1017600001020A50216B8A68EAB3D4F800C05CF821
:1017700000301343CA68496842EAC1010B434CF880
:101780000030216B0A7C02F00F020A614FF4C27133
:10179000226801EB0511535823F00F0353502268C0
:1017A0005358D4F830C0DCF810C043EA0C0353504F
:1017B000216B4FF4C47303EB05130A7DD1F81510A8
:1017C00042EA01222168CA50216B4FF4C67303EB31
:1017D00005130A7ED1F8191042EA01222168CA5085
:1017E00021680A5801E00DE05AE042F001020A5077
:1017F00000F074F981464FF00008DFF8B0A0DFF880
:10180000B0B026E022681358D1F80CC0098843EA2A
:101810000C0343EA41511150B3E7701C19D02EB1AB
:1018200000F05CF9A0EB0900B04212D9032084F863
:101830003C004DB1012D09D04FF4000021688860B3
:1018400084F83D80032071E78020F7E74FF40040E3
:10185000F4E7ADB12068012D816816D015488843A2
:101860000028DAD194F83C00422811D0522811D037
:10187000722813D084F83C7084F83D80002055E72E
:10188000206881682AEA0100EAE72BEA0100E7E71D
:10189000222000E0322084F83C00EDE76220FAE7E5
:1018A000042084F83C00012040E70000010000040F
:1018B00000010008000001107047000070B50446E8
:1018C00000F00CF90546601C02D00448007804447E
:1018D00000F004F9401BA042FAD370BD04000020C0
:1018E0002DE9F84FDFF8B8A100220AF1040B1446E5
:1018F00001274FF00F090BF1040E00BF0B6807FA28
:1019000004F52B40AB4274D1DFF898C14E68A6EBCA
:101910000C0866452BD00DDC032E34D005DC36B325
:10192000012E19D0022E2FD11BE0112E16D0122E0F
:101930002AD119E0B8F5881F19D006DCB8F5803F28
:1019400015D0B8F5801F1FD111E0B8F5001F0ED0DB
:10195000B8F5041F18D10AE0CA6815E0CA68121D5C
:1019600012E0CA6808320FE0CA680C320CE08A68DC
:101970002AB1012A4FF0080203D0456104E0042295
:1019800002E0056100E00022FF2B01D8064601E0DD
:1019900000F104064FEA840501D9A5F12005D6F827
:1019A00000C009FA05F82CEA080C02FA05F54CEA21
:1019B000050CC6F800C04D68ED006AD53A4DAE6919
:1019C00046F00106AE61AD6924F0030605F001059D
:1019D0000095364D06EB050CDCF80850A6074FEADB
:1019E000167809FA08F6B543314EB04202D1002606
:1019F0001AE04EE02F4EB04201D1012614E02E4EE7
:101A0000B04201D102260FE02C4EB04201D1032694
:101A10000AE02B4EB04201D1042605E0294EB04227
:101A200001D1052600E0062606FA08F62E43CCF87A
:101A300008604D68DAF80060ED03554601D51E4395
:101A400000E09E432E604D68AD0305D5DBF80060D5
:101A50001E43CBF8006004E0DBF800509D43CBF858
:101A600000504D68DEF80060ED02754601D51E435A
:101A700000E09E432E604D68AD0205D5084D0C3543
:101A80002E681E432E6004E0054E0C3635689D43DB
:101A90003560641C102CFFF431AFBDE8F88F0000F6
:101AA000000401400000111000100240000001403D
:101AB00000080140000C01400010014000140140EA
:101AC00000180140001C01408068084000D001203F
:101AD00070470AB1016170470904FBE7014880685B
:101AE0007047000004000020024881680278114419
:101AF0008160704704000020074810B5016841F07C
:101B000010010160032000F095F8002000F006F8B5
:101B100000F024F8002010BD0020024070B50D4DEB
:101B200004464FF47A712878B1FBF0F00A4909684D
:101B3000B1FBF0F000F005FB48B9102C07D20022F1
:101B40002146501E00F056F800206C6070BD012048
:101B500070BD000004000020000000201D4808B5F2
:101B6000816941F001018161806900F0010000900C
:101B7000032000F05FF8002211466FF00B0000F028
:101B800039F8002211466FF00A0000F033F8002205
:101B900011466FF0090000F02DF800221146501F89
:101BA00000F028F800221146101F00F023F8002250
:101BB0001146901E00F01EF800221146501E00F043
:101BC00019F80548416821F0E06141F00071416079
:101BD00008BD0000001002400000014000F01F029C
:101BE000012191404009800000F1E020C0F800117F
:101BF00070470000F0B40E4B1B680C46C3F3022381
:101C0000C3F10705042D00D90425191D072901D2A8
:101C1000002300E0DB1E012606FA05F1491E2140E3
:101C200099409E40761E16403143F0BC00F0D2BD74
:101C30000CED00E0064900F0070208684FF6FF03CC
:101C4000184040EA0220034A104308607047000031
:101C50000CED00E00000FA052DE9F047DFF83C81CB
:101C600005460E46D8F8000000F00700B0420CD23E
:101C7000D8F8001021F007013143C8F80010D8F857
:101C8000000000F00700B04263D12878444C800780
:101C900005D56068A96820F0F000084360602878E6
:101CA000C00745D06868012816D02168022816D0E0
:101CB000890700294DDA616821F003010143616061
:101CC000FFF70CFF6968074641F2883001290FD001
:101CD0000229814619D027E021688903E9E78901B3
:101CE000E7E700BFFFF7FAFEC11B494501D918E03D
:101CF00081466068C0F381000128F3D118E000BF7D
:101D0000FFF7ECFEC11B49450BD86068C0F38100AA
:101D10000228F5D10CE000BFFFF7E0FEC11B4945EA
:101D200002D90320BDE8F087606810F00C0FF3D1F2
:101D3000D8F80010404601F00701B1420BD9016804
:101D400021F0070131430160006800F00700B04254
:101D500001D00120E6E72878400705D56068E968EA
:101D600020F4E060084360602878000706D56068CA
:101D7000296920F4605040EAC100606000F01CF85E
:101D80006168084AC1F30311515CC8400649086004
:101D90000020FFF7C3FE0020C4E70000002002403F
:101DA00000100240A82B0008000000200148006835
:101DB000704700000000002012A185B00FC98DE817
:101DC0000F0014A0144A006804905168134801F0F1
:101DD0000C03042B10D0082B0ED1C1F38343C9038D
:101DE0001DF803000AD5516804AAC1F34041515CB3
:101DF0000A4A5043B0FBF1F005B070470849484328
:101E0000FAE7000002030405060708090A0B0C0D97
:101E10000E0F1010010200000010024000127A00A4
:101E200000093D002DE9F84F04460078B94DC00780
:101E300048D06868C0F38100012807D06868C0F303
:101E40008100022809D16868C00306D5286880038C
:101E500038D5606800286FD034E06068B0F5803F06
:101E60000BD010B1B0F5A02F11D0286820F480302D
:101E70002860286820F4802002E0286840F4803040
:101E80002860606888B1FFF729FE064609E02868E7
:101E900040F480202860F0E7FFF720FE801B6428D4
:101EA00075D828688003F7D50CE0FFF717FE0646C3
:101EB00005E000BFFFF712FE801B6428F0D82868F9
:101EC0008003F7D42078944E80074FF001094FF03B
:101ED00000083BD5686810F00C0F07D06868C0F3A5
:101EE0008100022809D16868C00306D428688007E9
:101EF00014D5206901281FD110E02069B0B1C6F8BF
:101F00000090FFF7EBFD074605E000BFFFF7E6FD99
:101F1000C01B0228C4D828688007F7D528686169E3
:101F200020F0F80040EAC10028600FE0C6F8008009
:101F3000FFF7D4FD074606E0E9E000BFFFF7CEFD5E
:101F4000C01B022823D828688007F7D42078000710
:101F50002CD57248A169D9B1C0F80090FFF7BEFD39
:101F6000074604E0FFF7BAFDC01B02280FD8686AD5
:101F70008007F7D56A484FF4FA510068B0FBF1F0DA
:101F8000009000BF0098411E0091FAD20EE080E060
:101F9000C0F80080FFF7A2FD074604E0FFF79EFDB2
:101FA000C01B022875D8686A8007F7D420784007DC
:101FB00060D5E8690027C00008D4E86940F0805087
:101FC000E861E869012700F08050009055480168F9
:101FD000C90513D40168834641F480710160FFF79D
:101FE0007DFD824606E000BFFFF778FDA0EB0A000A
:101FF00064284ED8DBF80000C005F5D5E06801285C
:102000000AD008B1052813D0286A20F00100286200
:10201000286A20F0040002E0286A40F001002862EB
:10202000E06841F2883B98B1FFF758FD82460BE02B
:10203000286A40F004002862EEE700BFFFF74EFD7B
:10204000A0EB0A0159455AD8286A8007F6D50CE05A
:10205000FFF744FD824605E0FFF740FDA0EB0A01D3
:1020600059454CD8286A8007F6D41FB1E86920F09A
:102070008050E861E06988B36968C1F38101022991
:1020800045D00228C6F8608004D0FFF727FD04463B
:1020900038E034E0FFF722FD074604E0FFF71EFDBD
:1020A000C01B02282BD828688001F7D4206AB0F51D
:1020B000803F05D16868A16820F40030084368605B
:1020C000D4E908010843696821F474110843686081
:1020D000C6F86090FFF702FD044606E015E000BF79
:1020E000FFF7FCFC001B022809D828688001F7D5FF
:1020F0000BE000BFFFF7F2FC001B022802D903200F
:10210000BDE8F88F28688001F4D40020F8E70120AA
:10211000F6E7000000100240000042428004424204
:1021200000000020007000404FF0E0210428086902
:1021300003D020F004000861704740F00400FAE783
:10214000704710B5401EB0F1807F01D3012010BD53
:102150004FF0E02460610F21601700F03BFB00208E
:10216000A06107202061002010BD10B5FFF7E8FF37
:1021700010BD7047704730B590F83C20012A20D040
:10218000012280F83C20022380F83D3003685C681F
:1021900024F070045C6003685C680D682C435C602C
:1021A00003689C6824F080049C6003689C6849680C
:1021B0000C439C6080F83D20002180F83C100846CC
:1021C00030BD022030BD10B5040003D094F83D00AE
:1021D00010B107E0012010BD002084F83C0020462B
:1021E00000F00CF8022084F83D00211D206800F06A
:1021F0006FFB012084F83D00002010BD08B50C4A9B
:1022000001680C48914207D1C16941F00401C161E4
:10221000C06900F0040009E0074A914207D1C16992
:1022200041F00801C161C06900F00800009008BDDC
:102230000008004000100240000C00400168CA681D
:1022400042F00102CA600068016841F001010160CA
:102250000020704770B5044690F83C00012817D064
:10226000012584F83C50022084F83D0020688268F3
:1022700022F0770222F47F4282600868502837D02B
:102280000DDC202859D005DC88B3102841D151E05D
:10229000022070BD302853D040283AD13FE060285A
:1022A0002ED070280BD0B0F5805F03D0B0F5005F62
:1022B0002FD110E02068816821F0070115E0CB687C
:1022C000D1E90121206800F049FB2168886840F0CD
:1022D000770088601DE0CB68D1E90121206800F01B
:1022E0003DFB2068816841F48041816011E01EE07F
:1022F000CA684968206800F043FB5021206806E066
:10230000CA684968206800F04CFB6021206800F032
:102310002FFB84F83D50002084F83C0070BDCA6853
:102320004968206800F02CFB40212068EFE700217D
:102330002068ECE710212068E9E720212068E6E723
:1023400030212068E3E7704770B5044600680169F2
:102350004FF00005C943890715D4C168C9438907EF
:1023600011D4E91E0161012020772068806980076F
:10237000204602D0FFF7E7FF04E000F098F820467F
:1023800000F096F8257720680169C943490717D4FA
:10239000C168C943490713D46FF0040101610220E9
:1023A00020772068806910F4407F204602D0FFF734
:1023B000CAFF04E000F07BF8204600F079F82577AA
:1023C00020680169C943090716D4C168C9430907D0
:1023D00012D46FF008010161042020772068C069E1
:1023E0008007204602D0FFF7AEFF04E000F05FF860
:1023F000204600F05DF8257720680169C943C906C9
:1024000017D4C168C943C90613D46FF01001016124
:10241000082020772068C06910F4407F204602D051
:10242000FFF791FF04E000F042F8204600F040F88A
:10243000257720680169C943C90708D1C168C94324
:10244000C90704D1891E0161204600F033F82068D5
:102450000169C943090609D4C168C943090605D4FD
:102460006FF0800101612046FFF783FE206801695B
:10247000C943490609D4C168C943490605D46FF068
:1024800040010161204600F03BF820680169C94322
:1024900089060BD4C168C943890607D46FF02001AF
:1024A00001612046BDE87040FFF764BE70BD704713
:1024B0007047000010B50F49036801220C68002125
:1024C0000D489C4208D14489641CA4B24481B4F5EF
:1024D000FA7F01D3C2714181084C24689C4207D124
:1024E00083895B1C9BB28381632B01D9027281813A
:1024F00010BD00008800002012000020C80000204D
:102500007047FEE7114810B50F4901602D21416069
:1025100000214FF440328160C0E903124FF40012F1
:10252000C0E905210122C0E907214162C0E90A1280
:10253000FEF72EFF002805D0BDE81040472104A07B
:1025400000F08BBA10BD0000006400404400002081
:102550002E2E2F5372632F63616E2E6300000000D6
:102560002DE9F04F584885B0816941F04001816103
:10257000816901F040010491816941F0100181619C
:10258000816901F010010491816941F004018161C8
:10259000816901F004010491816941F008018161C0
:1025A000816901F008010491816941F02001816194
:1025B0008069DFF818A100F0200045F24055049032
:1025C000012229465046FFF784FA00224FF4A06109
:1025D0005046FFF77EFADFF8F8B044F265070122B3
:1025E00039465846FFF775FA01228A213948FFF724
:1025F00070FA002220213748FFF76BFA45F2027883
:10260000012241463448FFF764FA4FF4AA490122F7
:1026100049463248FFF75DFA00244AF6BF20CDE96B
:102620000004694650460294FFF75AF900950125C7
:1026300002266946504603960195FFF751F94BF67D
:102640009A70CDE90004694658460294FFF748F9AC
:10265000CDE90075694658460396FFF741F9AA206F
:10266000CDE90005694603961A48FFF739F948F2A3
:102670005470CDE90004694616480294FFF730F91A
:102680004AF6F920CDE90004694613480294FFF7A1
:1026900027F9CDE9008569460F480396FFF720F931
:1026A000CDE9009569460D480396FFF719F94AF6FA
:1026B000FF20CDE90004694608480294FFF710F9AD
:1026C00005B0BDE8F08F0000001002400018014086
:1026D0000010014000080140000C014000140140BE
:1026E00010B5184886B01649016047210024C0E99A
:1026F000011440F2E731C0E903148461FFF763FD80
:1027000018B1402110A000F0A8F94FF480500090BB
:1027100069460C48FFF79EFD18B146210AA000F05B
:102720009CF9049404A907480594FFF724FD0028A8
:1027300003D04D2104A000F090F906B010BD0000B8
:1027400000080040880000202E2E2F5372632F7443
:10275000696D2E630000000010B5184886B0164958
:10276000016040F60F610024C0E9011440F2CF710E
:10277000C0E903148461FFF726FD18B15F2110A0A2
:1027800000F06BF94FF48050009069460B48FFF75A
:1027900061FD18B165210AA000F05FF9049404A955
:1027A00006480594FFF7E7FC002803D06C2104A03D
:1027B00000F053F906B010BD000C0040C800002026
:1027C0002E2E2F5372632F74696D2E63000000004C
:1027D000FEE770470907090E002806DA00F00F002F
:1027E00000F1E02080F8141D704700F1E02080F82F
:1027F000001470477047704710B5FFF775F9BDE8D2
:102800001040FFF7B2BC30B58FB001210804CDE90C
:1028100000100024029402250491CDE907504FF4E2
:10282000E01009906846FFF7FDFA00B1FEE70F20BF
:10283000CDE90A054FF48060CDE90C4002210AA8D9
:102840000E94FFF709FA00B1FEE7FFF7AFFA4FF475
:102850007A71B0FBF1F0FFF774FC0420FFF764FC21
:1028600000221146501EFFF7C5F90FB030BD000021
:102870000D48016841F00101016041680B4A1140B7
:10288000416001680A4A11400160016821F4802119
:102890000160416821F4FE0141604FF41F01816035
:1028A0000449C00308607047001002400000FFF8B0
:1028B000FFFFF6FE08ED00E00148FFF745BD000010
:1028C000880000200148FFF73FBD0000C80000203D
:1028D000F0B502681C4B1D4D1D4E1E4F1E4C4FF097
:1028E000804C984209D0A04207D0604505D0A8424C
:1028F00003D0B04201D0B84204D122F0700E4A6831
:1029000042EA0E02984209D0A04207D0604505D0A5
:10291000A84203D0B04201D0B84203D122F440759E
:10292000CA682A4322F080054A692A4302608A68FD
:10293000C2620A688262984201D0A04201D109694C
:10294000016301214161F0BD002C01400004004001
:1029500000080040000C00400034014010B58468BD
:1029600042EA032224F47F440A432243826010BDDA
:10297000826822F070020A4342F0070181607047CA
:1029800010B5036A046A24F001040462846924F027
:10299000F00444EA021423F00A020A43846102624A
:1029A00010BD10B5036A23F0100303628369046A43
:1029B00023F4704343EA023224F0A00343EA0111F6
:1029C0008261016210BD000010B5FF22002118488D
:1029D000FEF7A0FD17480268D14311F0FF0F4FF03A
:1029E00001010DD0144BD2B21B789A421BD1134A6D
:1029F000144B1170017D124A29B1A22910D012E0A6
:102A0000114801700FE01170417D104A1970817DED
:102A100011700F4AC17D11700E49007E087002E0EE
:102A20001170407D1870BDE810400148FEF796BB5C
:102A3000440000202000002010000020130000208F
:102A400014000020150000201200002016000020B5
:102A50001700002018000020FEE7FEE702E008C88B
:102A6000121F08C1002AFAD170477047002001E008
:102A700001C1121F002AFBD17047000086B000255B
:102A80000195029503950495FFF736F8FFF7BBFE15
:102A9000FFF766FDFFF736FDFFF722FEFFF75CFE4E
:102AA000002211461420FFF7A5F81420FFF796F82E
:102AB000002211461E20FFF79DF81E20FFF78EF81A
:102AC000002211463220FFF795F83220FFF786F8F2
:102AD000FEF7DEF9FDF77EFB2E48FFF7AFFB2E4831
:102AE000FFF7ACFB2D4C4FF4A067DFF8B4802570E6
:102AF0002C4E0FE0207801280CD12570FF208DF896
:102B000008008DF809008DF80A00072201A9307825
:102B1000FEF78EFA60780128ECD16570A07868B96C
:102B2000A179009163792279E178FDF7C5FEA5705E
:102B3000E57025716571A571FDF728FBA078A228C5
:102B400018D1E0780A2802D00B2802D006E0012232
:102B500000E0002239464046FEF7BBFFAA208DF870
:102B60000C00012203A93078FEF762FAA570E57027
:102B70008DF80C50E07940B1E571FDF70FFCFDF7E1
:102B8000A7FBFDF74FFDFDF7DBFB207A0128B1D154
:102B90002572AFE788000020C80000201200002046
:102BA000001801401000002000000000000000009C
:102BB00001020304060708090000FF00AA00000044
:102BC000E02B000800000020200000005C2A000824
:102BD000002C000820000020B80500006C2A000826
:102BE00000A24A04010000001000000000000000E4
:102BF00000000000000000000000000000000000D5
:0400000508000131BD
:00000001FF
