:020000040800F2
:100000004006002045010008AB2F0008172C00080F
:10001000A92F0008D70E0008593200080000000080
:10002000000000000000000000000000CF2F0008CA
:100030002911000800000000CD2F0008D12F000872
:100040005F0100085F0100085F0100085F01000810
:100050005F0100085F0100085F0100085F01000800
:100060005F0100085F0100085F0100085F010008F0
:100070005F0100085F0100085F0100085F010008E0
:100080005F0100085F0100085F0100085F010008D0
:10009000C93100085F0100085F0100085F01000826
:1000A0005F0100085F0100085F0100085F010008B0
:1000B0005F0100085F010008B93000085F01000817
:1000C0005F0100085F0100085F0100085F01000890
:1000D0005F0100085F0100085F0100085F01000880
:1000E0005F0100085F0100085F0100085F01000870
:1000F0005F0100085F0100085F0100085F01000860
:100100005F0100085F010008C53000085F010008BA
:100110005F0100085F0100085F0100085F0100083F
:100120005F0100085F0100085F0100085F0100082F
:10013000DFF80CD000F018F8004800477D320008C6
:10014000400600200648804706480047FEE7FEE7D5
:10015000FEE7FEE7FEE7FEE7FEE7FEE7FEE7FEE777
:100160007130000831010008064C074D06E0E068D8
:1001700040F0010394E8070098471034AC42F6D3EE
:10018000FFF7DAFF343400085434000870B5044631
:1001900000688168C943C9071CD1816821F0010149
:1001A000816001F035FF05460FE000BF01F030FF30
:1001B000401B022809D9A06A40F01000A062E06A42
:1001C00040F00100E062012070BD20688068C043FB
:1001D000C007EBD0002070BDF8B50026044600969D
:1001E00000688168C943C90728D0816841F00101CE
:1001F0008160134813490068B0FBF1F000E0401E35
:1002000000900028FBD101F003FF054611E000BF7C
:1002100001F0FEFE401B02280BD9A06A40F010003E
:10022000A062E06A40F00100E06284F824600120EE
:10023000F8BD20688068C043C007E9D10020F8BD40
:100240000000002040420F002DE9F0410E4E002535
:10025000307858B10124DFF83480002704EB8401A2
:1002600001EB08000179012903D007E02846BDE829
:10027000F08107710021204600F0A0FB641CE4B26D
:10028000172CEBD33770F1E711000020100100208C
:100290002DE9F047384D002401220221284601F0C3
:1002A000B2FEDFF8D89001222021484601F0ABFED3
:1002B000334E01228021304601F0A5FE012220218B
:1002C000304601F0A0FE01220821304601F09BFEDD
:1002D00001220221304601F096FE01220421484607
:1002E00001F091FE01221146484601F08CFE0122E8
:1002F00096033146484601F086FE224F01224021F6
:10030000384601F080FE4FF48058012241463846BD
:1003100001F079FE01223146384601F074FE0122D7
:1003200097023946284601F06EFE012241462846D2
:1003300001F069FE01223146284601F064FE124DAB
:1003400001221102284601F05EFE012239462846AC
:1003500001F059FE01224146284601F054FE0122D7
:100360003146284601F04FFE01224021484601F067
:100370004AFE2046BDE8F087000C01400010014015
:100380000008014000180140001401402DE9FC4123
:100390004FF00008174E0124454600BF06EB440706
:1003A000787801281AD100950C2C01D2601E00E04B
:1003B000A01EC0B28DF804000E482E3010F81400B4
:1003C0008DF8050016F8140078B18DF806500A482B
:1003D00007226946007800F08DFE7D70641CE4B24F
:1003E000172CDBD34046BDE8FC8101208DF80600C8
:1003F000EDE7000083010020100000202DE9FC4102
:100400004FF00008144D0124464600BF05EB440799
:100410007878012819D100960C2C01D2601E00E0DA
:10042000A01EC0B28DF8040015F814008DF8050068
:10043000094807222E38694610F814008DF8060086
:100440000648007800F056FE7E70641CE4B2172C5B
:10045000DCD34046BDE8FC81B10100201000002043
:100460002DE9F84F00209B4D00904021284601F0D7
:10047000C5FD994C01272179884200D06771202160
:10048000284601F0BBFDA179884200D0E771102118
:10049000284601F0B3FD217A884200D06772082116
:1004A000A846284601F0AAFDA17A884200D0E7724A
:1004B0008A4D8021284601F0A1FD217B884200D091
:1004C00067734021284601F099FDA17B884200D046
:1004D000E7732021284601F091FD217C884200D05D
:1004E00067741021284601F089FDA17C884200D064
:1004F000E7740821284601F081FD217D884200D063
:1005000067750421284601F079FDA17D884200D05D
:10051000E7750121284601F071FDA17E884200D0D7
:10052000E7766F4E4FF48051304601F067FD217F32
:10053000884200D067774FF40061304601F05EFDDD
:10054000A17F884200D0E7774FF48061B146304602
:1005500001F054FD94F82010884201D084F82170F5
:10056000604E4FF40041304601F048FD94F82210EF
:10057000884201D084F823704FF48061304601F046
:100580003DFD94F82410884201D084F825704FF482
:10059000007B5946304601F031FD94F82610884220
:1005A00001D084F827704FF48071B246304601F0D4
:1005B00025FD94F82810884201D084F829705E4601
:1005C0005946484601F01AFD94F82A10884201D095
:1005D00084F82B704FF4807B5946484601F00EFD9D
:1005E00094F82C10884201D084F82D7040214746A1
:1005F000404601F003FD04F8040F2021384601F0C5
:10060000FDFCA0701021384601F0F8FC2071082193
:10061000384601F0F3FCA0718021284601F0EEFC81
:1006200020724021284601F0E9FCA07220212846D2
:1006300001F0E4FC20731021284601F0DFFCA073D8
:100640000821284601F0DAFC20740421284601F034
:10065000D5FCA0740121284601F0D0FCA0754FF410
:100660008051484601F0CAFC20764FF400614846AC
:1006700001F0C4FCA0764FF480652946484601F09D
:10068000BDFC207769015746504601F0B7FCA077C2
:100690002946384601F0B2FC84F82000314638463D
:1006A00001F0ACFC84F822005D465946384601F062
:1006B000A5FC84F824003146484601F09FFC84F8EC
:1006C00026002946484601F099FC84F82800009845
:1006D000BDE8F88F000C01408301002000140140A8
:1006E00000100140000801402DE9F84F0020DFF81C
:1006F000748200908021404601F080FC9A4C0125D4
:100700002179884200D06571DFF860A2012150464E
:1007100001F074FCA179884200D0E571944E10215B
:10072000304601F06BFC217A884200D06572914F0F
:100730004021384601F062FCA17A884200D0E5727F
:100740001021384601F05AFC217B884200D06573A5
:100750000421884801F052FCA17B884200D0E57357
:100760000821304601F04AFC217C884200D06574A3
:100770000221304601F042FCA17C884200D0E574A1
:100780004FF400494946304601F038FC217D88424B
:1007900000D065754FF400573946B346304601F036
:1007A0002DFCA17D884200D0E5753E463946404685
:1007B00001F024FCA17E884200D0E57649466948D4
:1007C00001F01CFC217F884200D065774FF4006166
:1007D0005746504601F012FCA17F884200D0E577D1
:1007E000B0463146384601F009FC94F820108842A2
:1007F00001D084F821504E464946BA46384601F0A9
:10080000FDFB94F82210884201D084F823505A4FFF
:100810004FF40071384601F0F1FB94F8241088423F
:1008200001D084F825504FF400694946384601F05C
:10083000E5FB94F82610884201D084F82750414601
:10084000384601F0DBFB94F82810884201D084F888
:1008500029503146484801F0D1FB94F82A108842CB
:1008600001D084F82B508021584601F0C7FB94F842
:100870002C10884201D084F82D508021394801F095
:10088000BDFB04F8040F0121D346504601F0B6FB2E
:10089000A0701021364801F0B1FB364D2071402187
:1008A000284601F0ABFBA0711021284601F0A6FB01
:1008B00020720421284601F0A1FBA07208212C48D7
:1008C00001F09CFB20730221294801F097FBA073E3
:1008D000B2463146264801F091FB20744546414618
:1008E000234801F08BFBA07429461E4801F086FBCB
:1008F000A07551461B4801F081FB20764E464946C3
:10090000584601F07BFBA0762946584601F076FB5D
:1009100020775146584601F071FB174FA0774FF4EE
:100920000071384601F06AFB84F8200031463846F1
:1009300001F064FB84F822002946384601F05EFB92
:1009400084F824005146384601F058FB84F826000C
:100950008021074801F052FB84F828000098BDE888
:10096000F88F000000180140B1010020000C014088
:1009700000100140000801400014014070B5054618
:10098000049C0020162C01D9012070BD0B2C01D233
:10099000641C00E0A41CE4B204EB8406054CA555DD
:1009A00034446170A270044AE37001212171117016
:1009B00070BD000010010020110000202DE9FE4F45
:1009C00000210291162802D90120BDE8FE8F0021E6
:1009D00000918DF804000B2801D2411E00E0811E19
:1009E000FE4F8DF804107B149A10FD4CDFF8F48351
:1009F000DFF8F493FD4D1101FD4E4FF4804A4FF4A2
:100A0000806B172875D2DFE800F0740C28415B7505
:100A10008EA7C1D9FEFCFBFAF9F8F7F6F5F4F3F26C
:100A2000F1004FF40071B846384601F0E7FA064687
:100A30004FF4807700223946404601F0E4FA0A205C
:100A400001F0D6F901223946404601F0DCFA012EC8
:100A50004FD18DF80560802116E08021384601F0E5
:100A6000CDFA064600220221284601F0CCFA0A20DF
:100A700001F0BEF901220221284601F0C4FA012E3C
:100A8000E6D18DF8056040212846B4E101212F46CA
:100A9000284601F0B3FA054600222021304601F035
:100AA000B2FA0A2001F0A4F901222021304601F017
:100AB000AAFA012DCCD18DF80550202138469AE1B3
:100AC0001021304601F09AFA06460022802147465E
:100AD000404601F098FA0A2001F08AF901228021AB
:100AE000384601F090FA012EB2D18DF80560102140
:100AF000CAE74BE140214746404601F07FFA0646EF
:100B000000222021384601F07EFA0A2001F070F917
:100B100001222021384601F076FA012E98D18DF875
:100B200005600821B0E710214646404601F066FA0C
:100B3000054600220821304601F065FA0A2001F03E
:100B400057F901220821304601F05DFA012D97D1B5
:100B50008DF80550802117E004214646404601F0FB
:100B60004DFA054600220221304601F04CFA0A20D7
:100B700001F03EF901220221304601F044FA012D34
:100B800098D18DF805504021484634E1082130467F
:100B900001F034FA054600220421304601F033FA10
:100BA0000A2001F025F901220421304601F02BFA38
:100BB000012D99D18DF805502021E5E7022130461D
:100BC00001F01CFA054600220121304601F01BFA13
:100BD0000A2001F00DF901221146304601F013FA06
:100BE000012D9BD18DF805501021CDE75BE142E14D
:100BF00026E10BE1D6E0B9E09DE080E066E04BE065
:100C000031E018E0FFE7304601F0F8F90546002230
:100C100057465146304601F0F6F90A2001F0E8F84F
:100C200001223946304601F0EEF9012D8FD18DF8C1
:100C300005500821A8E71946304601F0DFF90546BE
:100C400000224021384601F0DEF90A2001F0D0F8F8
:100C500001224021384601F0D6F9012D90D18DF8BE
:100C60000550042190E71146384601F0C7F90546C2
:100C700000225E465946384601F0C5F90A2001F0C7
:100C8000B7F801223146384601F0BDF9012D7DD17A
:100C90008DF80550022177E71946384601F0AEF984
:100CA00005464FF4805600223146384601F0ABF934
:100CB0000A2001F09DF801223146384601F0A3F9DF
:100CC000012D63D18DF8055001215DE7B846384606
:100CD00001F094F90546002257465146404601F07E
:100CE00092F90A2001F084F801223946404601F0C9
:100CF0008AF9012D4AD18DF80550290319E0914652
:100D00001146A846284601F079F9054600225F46BB
:100D10005946404601F077F90A2001F069F80122AE
:100D20003946404601F06FF9012D6DD18DF805501F
:100D3000494630465FE01946A846284601F05EF96C
:100D400005464FF4805700223946404601F05BF9D2
:100D50000A2001F04DF801223946404601F053F9CE
:100D6000012D51D18DF805505946E2E789462E46AE
:100D7000284601F043F905460022574651463046C1
:100D800001F041F90A2001F033F800E03CE00122D3
:100D90003946304601F037F9012D35D18DF805502F
:100DA00049461AE04FF400714E46484601F026F9D4
:100DB00005464FF4807700223946304601F023F98A
:100DC0000A2001F015F801223946304601F01BF9DE
:100DD000012D19D18DF8055059460BE0001801403E
:100DE000100000200008014000140140000C0140E8
:100DF00000100140404601F001F98DF8060007227D
:100E00006946207800F076F90298DEE511464E46F4
:100E1000484601F0F3F8054600225F465946304641
:100E200001F0F1F80A2000F0E3FF012239463046D4
:100E300001F0E9F8012DE7D18DF805506902CCE702
:100E400019464E46484601F0D9F805464FF48057FA
:100E500000223946304601F0D6F80A2000F0C8FFDB
:100E600001223946304601F0CEF8012DCCD18DF863
:100E700005502902B1E7484601F0C0F805460022B6
:100E800057465146484601F0BEF80A2000F0B0FF30
:100E900001223946484601F0B6F8012DB4D18DF84B
:100EA0000550690245E78021304601F0A7F8054664
:100EB00000224021304601F0A6F80A2000F098FFF9
:100EC00001224021304601F09EF8012D9CD18DF881
:100ED000055029022DE7FEE7F0B51B498DB0002330
:100EE000D1E90001CDE90A01184801210325027862
:100EF000ADF82820CDE905135001CDE9000340F2FB
:100F0000FF74079118460AAF7FEA020637F81020EF
:100F1000401C724092B2144080B2A842F6D36001E5
:100F20000290022003900E200493CDE90810084897
:100F30000068416941F0020141616946044800F0DE
:100F40002DFB0DB0F0BD00002C3400081000002077
:100F50004C00002070B51A481A4C00F124011A4DBB
:100F60004863002020700421284601F047F801283A
:100F700003D1207840F0080020700821284601F0B5
:100F80003DF8012803D1207840F0040020701021A2
:100F9000284601F033F8012803D1207840F0020000
:100FA00020702021284601F029F8012803D120785B
:100FB00040F001002070BDE87040FFF78DBF0000D9
:100FC00028000020100000200018014010B5002962
:100FD00058D0826B4FF4D873046803EB0113E458C4
:100FE00014F0040494600468E4584DD0E40854609C
:100FF0000468E35803F00203D3604FF4DA73046823
:1010000003EB0113E45804F00F0414611162046847
:10101000E358C3F30723D3614FF4DC73046803EB95
:101020000113E45814750468E458240A54750468DC
:10103000E458240C94750468E3581B0ED3754FF4E0
:10104000DE73046803EB0113E45814760468E45873
:10105000240A54760468E458240C94760468E3580F
:101060001B0ED3760368202289B11A610268536986
:1010700023F05003536190F83C20222A0DD0322AED
:101080000BD00FE0426BA5E7640D1460B0E7DA60A7
:101090000268536923F00A03ECE70268536923F4FA
:1010A0000F43536112220123002990F83C1006D00F
:1010B000522915D0622916D0722906D115E042298D
:1010C0000ED0622908D0722908D080F83C3000BFC9
:1010D00000F0A5FD002010BD322107E0522105E0FF
:1010E00080F83C20F4E7222100E0422180F83C1007
:1010F000EEE7000030B587B06B460090002003900B
:101100000492029004E00C5C1D18401C2C7580B207
:101110009042F8D303484FF6FF71036300F080FD5F
:1011200007B030BD4C00002070470000F8B5002427
:10113000009490F824202546012A12D0012280F83C
:1011400024204A681F23072A0DD20668776B521E97
:1011500002EB820293409F430B6893401F437763E7
:1011600019E00220F8BD06680D2A0AD2376BD21F9B
:1011700002EB820293409F430B6893401F43376307
:1011800009E0F76A0D3A02EB820293409F430B6835
:1011900093401F43F7620A68072306680A2A0AD3A6
:1011A000F7680A3A02EB420293409F438B689340F0
:1011B0001F43F76008E0376902EB420293409F4308
:1011C0008B6893401F4337610A68102A01D0112AA7
:1011D00020D1124B02689A4217D193681B0219D48E
:1011E000936843F4000393600968102912D10C49F5
:1011F0000C4A0968B1FBF2F101EB8101490000E002
:10120000491E00910029FBD104E0816A41F02001D0
:101210008162012480F824502046F8BD002401405A
:101220000000002040420F00806A70470068C06CD8
:10123000704700002DE9F04104004FF000057FD019
:10124000A06A002628B9E66284F82460204600F0EF
:1012500081F82046FEF79AFFA16AC90600D420B1A2
:10126000A06A40F01000A0626AE0A16A21F48851EF
:1012700041F00201A162334923688B42E16904D144
:10128000B1F5402F01D14FF40021E7684FF4807C85
:1012900041EA470261680A43A168614508D0012913
:1012A00006D00021D4F814E0BEF1010F02D00AE00C
:1012B0006146F7E7C7B1A76A47F02007A762E76A68
:1012C00047F00107E7625F6827F469470F435F60F3
:1012D000236899681C4F394011439960A1686145A2
:1012E0000BD0012909D00CE0DFF860E0A7690EEB14
:1012F00047370F4347F40061E5E7218A0D05A5F55F
:1013000080152168CB6A23F470032B43CB622168DC
:1013100089680F4B1940914208D1E662A16A21F019
:10132000020141F00101A162BDE8F081A06A20F054
:10133000020040F01000A062E06A40F00100E062AC
:101340000120F1E7003C0140FDF7E1FF00E0FFFF75
:10135000FE0E1FFF30B5114D046811490122032311
:10136000104885B0AC4207D18C6944F400748C619C
:10137000896901F4007109E00B4DAC420CD18C6914
:1013800044F480648C61896901F480610491694648
:10139000CDE9002300F03EFD05B030BD0024014042
:1013A0000010024000080140002801402DE9F843E8
:1013B00000260D460446009600F02AFE804620686E
:1013C0008168C90508D5A06A40F02000A06284F8B1
:1013D00024600120BDE8F8834168C90503D4C06AD0
:1013E00010F4700F26D0022000F0D0FE38490968B2
:1013F000B1FBF0F72068036936490B424FEA6101FF
:101400004FEAA1121BD1C3684FEA611C13EA0C0F0B
:1014100015D103690B4221D1C06810421ED114209E
:101420001FE0681C06D045B300F0F2FDA0EB0800F9
:10143000A84222D8206800688007F2D52AE0036914
:101440000B4202D1C168114206D0026922490A4208
:1014500006D1C068084203D1542002E0292000E0F0
:10146000FC204743009813E0681C0ED02DB100F01B
:10147000CFFDA0EB0800A84207D9A06A40F0040005
:10148000A06284F824600320A4E70098401C009028
:10149000B842E9D321686FF012000860A06A40F4F6
:1014A0000070A06220688068C0F3424007280CD119
:1014B000E06850B9A06A20F48070A062A06AC004FD
:1014C00003D4A06A40F00100A062002082E700007F
:1014D00000000020244992244992240070B504465B
:1014E00090F8240001280DD0012084F82400204623
:1014F000FEF772FE02004FF0000005D084F82400D1
:10150000104670BD022070BDA16A40F201239943CC
:1015100041F48071A1621F4D23681F49AB4218D16D
:101520000E6816F4702F14D0A66A46F48016A662D0
:101530000E68760505D5A66A26F4005646F4805650
:10154000A662A66AF6040AD5E66A26F00606E662F0
:1015500006E0A66A26F48016A6625E68E9E7E06205
:1015600084F824006FF00200186020688368C3F3D9
:101570004243072B05D1A84208D1096811F4702F06
:1015800004D0816841F480118160B9E7816841F439
:10159000A001F9E70028014004240140F0B50C7DCA
:1015A000012303FA04F20468D4F800524E6A25F4C9
:1015B0007C5503EB06231D43C4F800520368D3F89F
:1015C0001C429443C3F81C424FF41073CD691C1D98
:1015D000BDB90568D5F80C629643C5F80C628E89D2
:1015E0004D684F6966F31F45066803EBC707F55161
:1015F0000E890D684F6966F31F45066804EBC7073F
:10160000F551CD69012D17D10568D5F80C62164347
:10161000C5F80C620E884D684F6966F31F45066871
:1016200003EBC703F5500D89CB684E6965F31F4383
:10163000056804EBC6042B518B69002B0368D3F8B3
:10164000044211D054EA0204C3F804420B69002B8F
:101650000368D3F8144209D054EA0204C3F81442D0
:10166000096A012904D009E09443EDE79443F5E7C2
:101670000168D1F81C321343C1F81C320068D0F85D
:10168000001221F00101C0F800120020F0BD7047E7
:101690002DE9F041044600680026C168C1F300133B
:1016A0004169C1F3C002102113B10AB14E01C160FA
:1016B000206802694369C2F30012C3F380131AB1B0
:1016C00013B146F480660161216848694FF0010555
:1016D000C043C0074ED18A687648904323D000208B
:1016E0008B68754A9A4320D000228F68734BBB43A6
:1016F0001DD00023104318433CD088688A68C0F38B
:1017000040008B68C2F3402203F0010310431843EA
:1017100029D04A69204622F001024A6194F83C101F
:10172000122906D00AE00120DAE70122DDE70123D1
:10173000E0E701684A6922F40F424A6190F83C10E0
:10174000422908D0522908D0722908D080F83C508C
:1017500000F04CFB09E0222102E0322100E062218E
:1017600080F83C10F4E746F4006620688168544A2B
:10177000114381602168C868496910F0030FC1F303
:10178000400104D019B100212046FFF71FFC216859
:101790000869496910F0030FC1F3001104D019B1B1
:1017A00001212046FFF712FC206C304320642068A2
:1017B0008169426911F0010F4369C2F30022C3F34A
:1017C000C03305D022B11BB1216C41F0010121646D
:1017D0008169C1F340034169C1F340224169C1F30A
:1017E000C0312BB122B119B1216C41F00201216449
:1017F0008169C1F3800341694269C1F38021C2F369
:10180000C0322BB121B11AB1216C41F00401216425
:10181000816911F0700F08D000224169C1F3C02323
:101820004169C1F3C03112B121E00122F5E7F3B102
:10183000E9B1816901F0700140292FD006DC10293F
:1018400009D020290BD030290DD123E0502929D0EF
:10185000602908D12AE0216C41F0080102E0216CE6
:1018600041F010012164816921F070018161206CD7
:1018700000280DD021680420486084F83C5020687E
:10188000416948F65B72914341612046FFF7FFFED4
:10189000BDE8F081216C41F02001E3E7216C41F0CB
:1018A0004001DFE7216C41F08001DBE7216C41F46E
:1018B0008071D7E70100000400010008000001105A
:1018C000090501002DE9F04104004FF0000504D0A6
:1018D00094F83C00002618B107E00120BDE8F08133
:1018E00084F83D60204600F083F8022084F83C0034
:1018F0002068016821F0020101602068016841F060
:101900000101016000F084FB07464FF0030804E08A
:1019100000F07EFBC01B0A2853D820684068C0072F
:10192000F6D021684868C00758D0A069012801D1C5
:1019300045F08005E06901282FD025F04000226A9B
:10194000012A2DD020F02000626A012A2BD020F03D
:101950001000A26A012A29D020F00800E26A012AB8
:1019600027D020F004000A6822F0FC0202430A603B
:10197000D4E902010843D4E9041211430843616821
:10198000491E08432168C8612068016821F00101EF
:10199000016000F03DFB054618E045F04000CEE751
:1019A00040F02000D0E740F01000D2E740F00800FF
:1019B000D4E740F00400D6E700F02AFB401B0A28D9
:1019C00004D904F83C8F0320667087E720684068DC
:1019D000C007F1D120684068C00703D0042084F814
:1019E0003C007AE72664012084F83C00002075E77B
:1019F00010B50068114986B088421DD11048C169F0
:101A000041F00071C161C0690E4C00F0007004909B
:101A10004FF400600090002001900290694620463B
:101A200000F0F8F9A0140090022001900320039028
:101A30006946204600F0EEF906B010BD0064004093
:101A400000100240000801402DE9F84F17460D0034
:101A5000044602D0012D2BD010E094F83C0022283F
:101A60002ED094F83C0042282AD000BF94F83C00C5
:101A7000622825D094F83C00722821D094F83D00CB
:101A800001281DD0012684F83D60622094F83C2096
:101A900072214FF042094FF0220A4FF0520B95B1DC
:101AA000122A1AD0222A19D0422A1AD0322015E03E
:101AB00094F83C00322803D094F83C005228D5D149
:101AC0000220BDE8F88F122A05D0322A06D0522A09
:101AD00007D0504602E0484600E0584684F83C00F3
:101AE00001E084F83C1000F093FA4FF000080090F9
:101AF0000EE0781C0CD02FB100F08AFA0099401A41
:101B0000B84205D9032084F83C0084F83D80D8E72A
:101B10002068EDB3D0F8100010F0030FE9D0C5B382
:101B2000D4F838004FF4D871226801EB05115258EF
:101B300012F0040282602268525850D0D2084260EB
:101B40002268515801F00201C1604FF4DA71226835
:101B500001EB0511525802F00F0202612268515840
:101B6000C1F30721C0E907154FF4DC71226801EBCE
:101B700005115258027522685258120A427522689D
:101B80005258120C827522685158090EC17501E035
:101B900021E022E04FF4DE71226801EB051152587A
:101BA000027622685258120A427622685258120C63
:101BB000827622685158090EC176202022681221AF
:101BC00085B1106194F83C0052281FD0622820D0C3
:101BD000722810D11FE0C0689EE7606BA2E7520D2B
:101BE0000260ADE7D06094F83C0042280ED0622835
:101BF00008D0722808D084F83C6000BF84F83D808B
:101C000000205EE7322007E0584605E084F83C10EB
:101C1000F4E7504600E0484684F83C00EEE77047A1
:101C20002DE9F05F0E46016804468868400105D43E
:101C30008868000102D48868C0006FD594F83D0020
:101C400001280CD0012784F83D7094F83C0022282C
:101C500008D0322808D062280ED0122005E00220D9
:101C6000BDE8F09F422000E0522084F83C008868E4
:101C7000400103D5002507E07220F6E788680001DF
:101C800001D5012500E002254FF4C07000EB0510DE
:101C90000A5802F001020A50216B8A68EAB3D4F8AC
:101CA00000C05CF800301343CA68496842EAC101C9
:101CB0000B434CF80030216B0A7C02F00F020A61E2
:101CC0004FF4C271226801EB0511535823F00F0342
:101CD000535022685358D4F830C0DCF810C043EA9F
:101CE0000C035350216B4FF4C47303EB05130A7DAF
:101CF000D1F8151042EA01222168CA50216B4FF435
:101D0000C67303EB05130A7ED1F8191042EA0122CB
:101D10002168CA5021680A5801E00DE05AE042F0FB
:101D200001020A5000F074F981464FF00008DFF814
:101D3000B0A0DFF8B0B026E022681358D1F80CC08C
:101D4000098843EA0C0343EA41511150B3E7701C80
:101D500019D02EB100F05CF9A0EB0900B04212D905
:101D6000032084F83C004DB1012D09D04FF4000050
:101D70002168886084F83D80032071E78020F7E7C0
:101D80004FF40040F4E7ADB12068012D816816D012
:101D9000154888430028DAD194F83C00422811D035
:101DA000522811D0722813D084F83C7084F83D80FA
:101DB000002055E7206881682AEA0100EAE72BEA5B
:101DC0000100E7E7222000E0322084F83C00EDE744
:101DD0006220FAE7042084F83C00012040E700007C
:101DE000010000040001000800000110704700001D
:101DF00070B5044600F00CF90546601C02D004489A
:101E00000078044400F004F9401BA042FAD370BDEE
:101E1000040000202DE9F84FDFF8B8A100220AF1F4
:101E2000040B144601274FF00F090BF1040E00BFFD
:101E30000B6807FA04F52B40AB4274D1DFF898C168
:101E40004E68A6EB0C0866452BD00DDC032E34D073
:101E500005DC36B3012E19D0022E2FD11BE0112E36
:101E600016D0122E2AD119E0B8F5881F19D006DC39
:101E7000B8F5803F15D0B8F5801F1FD111E0B8F537
:101E8000001F0ED0B8F5041F18D10AE0CA6815E08B
:101E9000CA68121D12E0CA6808320FE0CA680C3224
:101EA0000CE08A682AB1012A4FF0080203D045618C
:101EB00004E0042202E0056100E00022FF2B01D8CB
:101EC000064601E000F104064FEA840501D9A5F1B8
:101ED0002005D6F800C009FA05F82CEA080C02FA29
:101EE00005F54CEA050CC6F800C04D68ED006AD552
:101EF0003A4DAE6946F00106AE61AD6924F00306C5
:101F000005F001050095364D06EB050CDCF8085090
:101F1000A6074FEA167809FA08F6B543314EB042E3
:101F200002D100261AE04EE02F4EB04201D1012628
:101F300014E02E4EB04201D102260FE02C4EB042EA
:101F400001D103260AE02B4EB04201D1042605E060
:101F5000294EB04201D1052600E0062606FA08F611
:101F60002E43CCF808604D68DAF80060ED03554662
:101F700001D51E4300E09E432E604D68AD0305D59C
:101F8000DBF800601E43CBF8006004E0DBF8005093
:101F90009D43CBF800504D68DEF80060ED027546B9
:101FA00001D51E4300E09E432E604D68AD0205D56D
:101FB000084D0C352E681E432E6004E0054E0C368D
:101FC00035689D433560641C102CFFF431AFBDE8CB
:101FD000F88F0000000401400000111000100240C2
:101FE0000000014000080140000C014000100140C9
:101FF0000014014000180140001C014080680840A6
:1020000000D0012070470AB1016170470904FBE765
:102010000148806870470000040000200248816881
:10202000027811448160704704000020074810B511
:10203000016841F010010160032000F095F80020D4
:1020400000F006F800F024F8002010BD0020024047
:1020500070B50D4D04464FF47A712878B1FBF0F05D
:102060000A490968B1FBF0F000F0F5FB48B9102C03
:1020700007D200222146501E00F056F800206C6066
:1020800070BD012070BD0000040000200000002091
:102090001D4808B5816941F001018161806900F046
:1020A00001000090032000F05FF8002211466FF05D
:1020B0000B0000F039F8002211466FF00A0000F022
:1020C00033F8002211466FF0090000F02DF80022CD
:1020D0001146501F00F028F800221146101F00F092
:1020E00023F800221146901E00F01EF8002211462F
:1020F000501E00F019F80548416821F0E06141F0F8
:102100000071416008BD0000001002400000014065
:1021100000F01F02012191404009800000F1E02001
:10212000C0F8001170470000F0B40E4B1B680C465D
:10213000C3F30223C3F10705042D00D90425191D9B
:10214000072901D2002300E0DB1E012606FA05F173
:10215000491E214099409E40761E16403143F0BCF6
:1021600000F024BF0CED00E0064900F0070208680B
:102170004FF6FF03184040EA0220034A104308606C
:10218000704700000CED00E00000FA0510B52CA42B
:1021900001461DCC86B08DE81D002DA02D4C006899
:1021A0000490002004292FD00BDC01292FD0022914
:1021B00028D100F07BF96168C1F38131491C4900E5
:1021C0001EE0082920D010291CD161682268D201A4
:1021D00018D5C1F38342C9031DF8020009D561680F
:1021E00004AAC1F34041515C1B4AB2FBF1F14843E0
:1021F00001E01A4948436168490203D440000321C1
:10220000B0FBF1F006B010BD00F060F9FAE7226A09
:10221000C2F30121012903D1920701D5C803F1E7D7
:10222000022905D1626A920702D549F64040E9E7E2
:102230000329E7D121688903E4D54FF22440E1E77F
:1022400002030405060708090A0B0C0D0E0F1010F7
:10225000010200000010024000127A0000093D0057
:102260002DE9F84305460078354CC00754D0E069A5
:102270000026C00008D4E06940F08050E061E069C9
:10228000012600F0805000902E480168C90512D444
:102290000168804641F480710160FFF7B9FE07468E
:1022A00005E000BFFFF7B4FEC01B642823D8D8F8B0
:1022B0000000C005F6D5206A10F4407021D0A9882E
:1022C00001F4407181421CD0206A1F49012220F490
:1022D00040700A6000220A602062C00711D0FFF738
:1022E00097FE074641F2883808E000BFFFF790FEEE
:1022F000C11B414502D90320BDE8F883206A80074D
:10230000F4D5206A696820F44070084320621EB149
:10231000E06920F08050E0612878800705D560688A
:10232000A96820F44040084360602878C00605D5BD
:102330006068696920F48000084360600020DBE782
:102340000010024000700040400442422DE9F04776
:10235000DFF83C8105460E46D8F8000000F0070083
:10236000B0420CD2D8F8001021F007013143C8F870
:102370000010D8F8000000F00700B04263D12878C0
:10238000444C800705D56068A96820F0F000084338
:1023900060602878C00745D06868012816D0216899
:1023A000022816D0890700294DDA616821F003015F
:1023B00001436160FFF72CFE6968074641F28830EF
:1023C00001290FD00229814619D027E0216889030D
:1023D000E9E78901E7E700BFFFF71AFEC11B49459E
:1023E00001D918E081466068C0F381000128F3D16B
:1023F00018E000BFFFF70CFEC11B49450BD8606811
:10240000C0F381000228F5D10CE000BFFFF700FE09
:10241000C11B494502D90320BDE8F087606810F070
:102420000C0FF3D1D8F80010404601F00701B1427B
:102430000BD9016821F0070131430160006800F009
:102440000700B04201D00120E6E72878400705D513
:102450006068E96820F4E06008436060287800075D
:1024600006D56068296920F4605040EAC1006060C8
:1024700000F02CF86168084AC1F30311515CC840B0
:10248000064908600020FFF7E3FD0020C4E70000D4
:102490000020024000100240143400080000002018
:1024A000014800687047000000000020044805490A
:1024B00000684968044AC1F3C221515CC8407047B2
:1024C00000000020001002402434000812A185B052
:1024D0000FC98DE80F0014A0144A006804905168D9
:1024E000134801F00C03042B10D0082B0ED1C1F3BC
:1024F0008343C9031DF803000AD5516804AAC1F338
:102500004041515C0A4A5043B0FBF1F005B07047BE
:1025100008494843FAE700000203040506070809D2
:102520000A0B0C0D0E0F10100102000000100240EB
:1025300000127A0000093D002DE9F84F04460078AA
:10254000B94DC00748D06868C0F38100012807D0A2
:102550006868C0F38100022809D16868C00306D505
:102560002868800338D5606800286FD034E0606840
:10257000B0F5803F0BD010B1B0F5A02F11D0286876
:1025800020F480302860286820F4802002E0286849
:1025900040F480302860606888B1FFF739FD064656
:1025A00009E0286840F480202860F0E7FFF730FD5C
:1025B000801B642875D828688003F7D50CE0FFF7E6
:1025C00027FD064605E000BFFFF722FD801B6428BB
:1025D000F0D828688003F7D42078944E80074FF015
:1025E00001094FF000083BD5686810F00C0F07D0C8
:1025F0006868C0F38100022809D16868C00306D466
:102600002868800714D5206901281FD110E02069AF
:10261000B0B1C6F80090FFF7FBFC074605E000BF2D
:10262000FFF7F6FCC01B0228C4D828688007F7D53E
:102630002868616920F0F80040EAC10028600FE0D6
:10264000C6F80080FFF7E4FC074606E0E9E000BFBB
:10265000FFF7DEFCC01B022823D828688007F7D4C8
:10266000207800072CD57248A169D9B1C0F8009034
:10267000FFF7CEFC074604E0FFF7CAFCC01B0228A8
:102680000FD8686A8007F7D56A484FF4FA51006896
:10269000B0FBF1F0009000BF0098411E0091FAD20B
:1026A0000EE080E0C0F80080FFF7B2FC074604E0CF
:1026B000FFF7AEFCC01B022875D8686A8007F7D404
:1026C0002078400760D5E8690027C00008D4E86991
:1026D00040F08050E861E869012700F080500090E8
:1026E00055480168C90513D40168834641F48071D7
:1026F0000160FFF78DFC824606E000BFFFF788FC13
:10270000A0EB0A0064284ED8DBF80000C005F5D520
:10271000E06801280AD008B1052813D0286A20F003
:1027200001002862286A20F0040002E0286A40F0D4
:1027300001002862E06841F2883B98B1FFF768FC2D
:1027400082460BE0286A40F004002862EEE700BFF2
:10275000FFF75EFCA0EB0A0159455AD8286A8007AA
:10276000F6D50CE0FFF754FC824605E0FFF750FC7D
:10277000A0EB0A0159454CD8286A8007F6D41FB14E
:10278000E86920F08050E861E06988B36968C1F3C6
:102790008101022945D00228C6F8608004D0FFF7E5
:1027A00037FC044638E034E0FFF732FC074604E02B
:1027B000FFF72EFCC01B02282BD828688001F7D415
:1027C000206AB0F5803F05D16868A16820F4003028
:1027D00008436860D4E908010843696821F474116A
:1027E00008436860C6F86090FFF712FC044606E0F4
:1027F00015E000BFFFF70CFC001B022809D8286871
:102800008001F7D50BE000BFFFF702FC001B022898
:1028100002D90320BDE8F88F28688001F4D4002095
:10282000F8E70120F6E700000010024000004242F5
:102830008004424200000020007000404FF0E02180
:102840000428086903D020F004000861704740F0B4
:102850000400FAE7704710B5401EB0F1807F01D345
:10286000012010BD4FF0E02460610F21601700F0DF
:102870009DFB0020A06107202061002010BD10B545
:10288000FFF7E8FF10BD7047704730B590F83C2067
:10289000012A20D0012280F83C20022380F83D301C
:1028A00003685C6824F070045C6003685C680D6811
:1028B0002C435C6003689C6824F080049C6003687F
:1028C0009C6849680C439C6080F83D20002180F89A
:1028D0003C10084630BD022030BD10B5040003D0C6
:1028E00094F83D0010B107E0012010BD002084F8ED
:1028F0003C00204600F00CF8022084F83D00211D29
:10290000206800F0E5FB012084F83D00002010BDA8
:1029100008B50C4A01680C48914207D1C16941F0E1
:102920000401C161C06900F0040009E0074A914256
:1029300007D1C16941F00801C161C06900F0080018
:10294000009008BD0008004000100240000C00404C
:102950000168CA6842F00102CA600068016841F07B
:10296000010101600020704770B5044690F83C00FA
:10297000012817D0012584F83C50022084F83D003E
:102980002068826822F0770222F47F428260086821
:10299000502837D00DDC202859D005DC88B310280A
:1029A00041D151E0022070BD302853D040283AD1A7
:1029B0003FE060282ED070280BD0B0F5805F03D0A8
:1029C000B0F5005F2FD110E02068816821F0070189
:1029D00015E0CB68D1E90121206800F0BFFB216838
:1029E000886840F0770088601DE0CB68D1E901215C
:1029F000206800F0B3FB2068816841F48041816069
:102A000011E01EE0CA684968206800F0B9FB502157
:102A1000206806E0CA684968206800F0C2FB6021AF
:102A2000206800F0A5FB84F83D50002084F83C00AD
:102A300070BDCA684968206800F0A2FB4021206888
:102A4000EFE700212068ECE710212068E9E720216A
:102A50002068E6E730212068E3E7704770B5044658
:102A6000006801694FF00005C943890715D4C168A2
:102A7000C943890711D4E91E01610120207720682C
:102A800080698007204602D0FFF7E7FF04E000F0EE
:102A900098F8204600F096F8257720680169C94328
:102AA000490717D4C168C943490713D46FF004011B
:102AB0000161022020772068806910F4407F204661
:102AC00002D0FFF7CAFF04E000F07BF8204600F0D8
:102AD00079F8257720680169C943090716D4C168C8
:102AE000C943090712D46FF008010161042020775F
:102AF0002068C0698007204602D0FFF7AEFF04E0DF
:102B000000F05FF8204600F05DF825772068016945
:102B1000C943C90617D4C168C943C90613D46FF0A5
:102B200010010161082020772068C06910F4407FFF
:102B3000204602D0FFF791FF04E000F042F8204663
:102B400000F040F8257720680169C943C90708D11A
:102B5000C168C943C90704D1891E0161204600F03C
:102B600033F820680169C943090609D4C168C9431B
:102B7000090605D46FF0800101612046FFF783FE4E
:102B800020680169C943490609D4C168C943490697
:102B900005D46FF040010161204600F03BF8206849
:102BA0000169C94389060BD4C168C943890607D4A2
:102BB0006FF0200101612046BDE87040FFF764BE60
:102BC00070BD70477047000010B50F4903680122BF
:102BD0000C6800210D489C4208D1C489641CA4B231
:102BE000C481B4F5FA7F01D3C271C181084C246855
:102BF0009C4207D1038A5B1C9BB20382632B01D9E1
:102C00000272018210BD000090000020120000201E
:102C1000D00000207047FEE73EB51348114901245B
:102C2000016000218160C16041614FF46022046154
:102C3000C2614160FEF7FEFA18B146210BA000F018
:102C40000CFB1020CDE900040720029069460648DD
:102C5000FEF76CFA002803D0502104A000F0FDFA22
:102C60003EBD000000240140E00100202E2E5C53F8
:102C700072635C6164632E63000000003EB512481D
:102C8000002410498460C46044610160012505612D
:102C90004FF460214460C161FEF7CCFA18B16421A1
:102CA0000AA000F0DAFA07200094CDE90150694645
:102CB0000548FEF73BFA002803D06E2103A000F080
:102CC000CCFA3EBD00280140100200202E2E5C539D
:102CD00072635C6164632E6300000000114810B5EC
:102CE0000F4901602D21416000214FF44032816085
:102CF000C0E903124FF40012C0E905210122C0E926
:102D000007214162C0E90A12FEF7DCFD002805D068
:102D1000BDE81040472104A000F09FBA10BD00009C
:102D2000006400404C0000202E2E2F5372632F634E
:102D3000616E2E63000000002DE9F04F584885B009
:102D4000816941F040018161816901F04001049194
:102D5000816941F010018161816901F010010491E4
:102D6000816941F004018161816901F004010491EC
:102D7000816941F008018161816901F008010491D4
:102D8000816941F0200181618069DFF818A100F0BC
:102D9000200045F240550490012229465046FFF795
:102DA00032F900224FF4A0615046FFF72CF9DFF80A
:102DB000F8B044F26507012239465846FFF723F977
:102DC00001228A213948FFF71EF9002220213748C5
:102DD000FFF719F945F20278012241463448FFF71E
:102DE00012F94FF4AA49012249463248FFF70BF97C
:102DF00000244AF6BF20CDE90004694650460294FB
:102E0000FFF708F80095012502266946504603960B
:102E10000195FEF7FFFF4BF69A70CDE90004694675
:102E200058460294FEF7F6FFCDE90075694658460C
:102E30000396FEF7EFFFAA20CDE900056946039649
:102E40001A48FEF7E7FF48F25470CDE900046946DE
:102E500016480294FEF7DEFF4AF6F920CDE9000499
:102E6000694613480294FEF7D5FFCDE9008569460F
:102E70000F480396FEF7CEFFCDE9009569460D4851
:102E80000396FEF7C7FF4AF6FF20CDE90004694626
:102E900008480294FEF7BEFF05B0BDE8F08F0000C1
:102EA00000100240001801400010014000080140DD
:102EB000000C01400014014010B5184886B01649B6
:102EC000016047210024C0E9011440F2E731C0E964
:102ED00003148461FFF701FD18B1402110A000F038
:102EE000BCF94FF48050009069460C48FFF73CFD58
:102EF00018B146210AA000F0B0F9049404A90748CB
:102F00000594FFF7C2FC002803D04D2104A000F077
:102F1000A4F906B010BD0000000800409000002099
:102F20002E2E2F5372632F74696D2E6300000000E4
:102F300010B5184886B01649016040F60F610024AC
:102F4000C0E9011440F2CF71C0E903148461FFF7B6
:102F5000C4FC18B15F2110A000F07FF94FF480503D
:102F6000009069460B48FFF7FFFC18B165210AA0E5
:102F700000F073F9049404A906480594FFF785FC52
:102F8000002803D06C2104A000F067F906B010BD42
:102F9000000C0040D00000202E2E2F5372632F749F
:102FA000696D2E6300000000FEE770470907090EF7
:102FB000002806DA00F00F0000F1E02080F8141D70
:102FC000704700F1E02080F80014704770477047A8
:102FD00010B5FFF723F8BDE81040FFF750BCF0B57F
:102FE00095B00121002408040794CDE905100225BD
:102FF000CDE90C5009914FF4E0100E9005A8FFF7B1
:103000009BFA00B1FEE70F270097CDE901544FF47A
:103010008066CDE9036402216846FFF797F900B1A5
:10302000FEE70097CDE90154CDE90364022168462B
:10303000FFF78CF900B1FEE74FF4004011900F95B7
:103040000FA8FFF70DF900B1FEE7FFF729FA4FF4DB
:103050007A71B0FBF1F0FFF7FEFB0420FFF7EEFB07
:1030600000221146501EFFF75FF815B0F0BD0000BA
:103070000D48016841F00101016041680B4A1140AF
:10308000416001680A4A11400160016821F4802111
:103090000160416821F4FE0141604FF41F0181602D
:1030A0000449C00308607047001002400000FFF8A8
:1030B000FFFFF6FE08ED00E00148FFF7CFBC00007F
:1030C000900000200148FFF7C9BC0000D00000209C
:1030D000F0B502681C4B1D4D1D4E1E4F1E4C4FF08F
:1030E000804C984209D0A04207D0604505D0A84244
:1030F00003D0B04201D0B84204D122F0700E4A6829
:1031000042EA0E02984209D0A04207D0604505D09D
:10311000A84203D0B04201D0B84203D122F4407596
:10312000CA682A4322F080054A692A4302608A68F5
:10313000C2620A688262984201D0A04201D1096944
:10314000016301214161F0BD002C014000040040F9
:1031500000080040000C00400034014010B58468B5
:1031600042EA032224F47F440A432243826010BDD2
:10317000826822F070020A4342F0070181607047C2
:1031800010B5036A046A24F001040462846924F01F
:10319000F00444EA021423F00A020A438461026242
:1031A00010BD10B5036A23F0100303628369046A3B
:1031B00023F4704343EA023224F0A00343EA0111EE
:1031C0008261016210BD000010B5FF220021184885
:1031D000FEF73AFC17480268D14311F0FF0F4FF099
:1031E00001010DD0144BD2B21B789A421BD1134A65
:1031F000144B1170017D124A29B1A22910D012E09E
:10320000114801700FE01170417D104A1970817DE5
:1032100011700F4AC17D11700E49007E087002E0E6
:103220001170407D1870BDE810400148FEF730BABB
:103230004C00002028000020100000201300002077
:1032400014000020150000201200002016000020AD
:103250001700002018000020FEE7FEE702E008C883
:10326000121F08C1002AFAD170477047002001E000
:1032700001C1121F002AFBD17047000086B0002553
:103280000195029503950495FEF7D0FEFFF7A7FE82
:10329000FFF752FDFFF722FDFFF70EFEFFF748FE96
:1032A000FFF7BAFCFFF7EAFC002211461420FEF7F4
:1032B0003BFF1420FEF72CFF002211461E20FEF7D4
:1032C00033FF1E20FEF724FF002211463220FEF7B6
:1032D0002BFF3220FEF71CFFFDF73CFEFCF7D8FF6A
:1032E0004548FFF735FB4548FFF732FB444CDFF814
:1032F0001491454E257040F2CC474FF4A068608988
:10330000B84209D93E49020A12314A708870032234
:103310003078FDF7EFFE6581207801280CD125700B
:10332000FF208DF808008DF809008DF80A000722AB
:1033300001A93078FDF7DEFE607801282CD1657098
:10334000A07868B9A179009163792279E178FDF7D5
:1033500015FBA570E57025716571A571FCF774FF0B
:10336000A078A22818D1E0780A2802D00B2802D031
:1033700006E0012200E0002241464846FEF743FEF7
:10338000AA208DF80C00012203A93078FDF7B2FEC7
:10339000A570E5708DF80C50FDF762F8FCF7F6FFAC
:1033A000FDF7A2F9FDF72AF8E07900B1E571207A7E
:1033B0000128A4D125721548FEF790F83221134850
:1033C000FDF7F4FF1148FDF72FFF800503D50F48E7
:1033D000FDF72CFF60810E48FEF780F832210C4883
:1033E000FDF7E4FF0A48FDF71FFF800587D5084871
:1033F000FDF71CFFA08182E790000020D000002094
:1034000012000020001801401000002010020020CF
:10341000E0010020000000000000000001020304A1
:103420000607080900000000010203040000FF0075
:10343000AA0000005434000800000020280000000A
:103440005C3200087C3400082800002018060000C8
:103450006C32000800A24A040100000010000000C5
:10346000000000000000000000000000000000005C
:0C3470000000000000000000A3000000AD
:0400000508000131BD
:00000001FF
