:020000040800F2
:10000000D0050020450100083726000873230008AA
:1000100035260008B10C00089928000800000000EF
:100020000000000000000000000000005B26000847
:10003000D50E000800000000592600085D260008C3
:100040005F0100085F0100085F0100085F01000810
:100050005F0100085F0100085F0100085F01000800
:100060005F0100085F0100085F0100085F010008F0
:100070005F0100085F0100085F0100085F010008E0
:100080005F0100085F0100085F0100085F010008D0
:100090002D2800085F0100085F0100085F010008CB
:1000A0005F0100085F0100085F0100085F010008B0
:1000B0005F0100085F0100081D2700085F010008BC
:1000C0005F0100085F0100085F0100085F01000890
:1000D0005F0100085F0100085F0100085F01000880
:1000E0005F0100085F0100085F0100085F01000870
:1000F0005F0100085F0100085F0100085F01000860
:100100005F0100085F010008292700085F0100085F
:100110005F0100085F0100085F0100085F0100083F
:100120005F0100085F0100085F0100085F0100082F
:10013000DFF80CD000F018F800480047BD28000890
:10014000D00500200648804706480047FEE7FEE746
:10015000FEE7FEE7FEE7FEE7FEE7FEE7FEE7FEE777
:10016000D526000831010008064C074D06E0E0687E
:1001700040F0010394E8070098471034AC42F6D3EE
:10018000FFF7DAFF80290008A02900082DE9F041D7
:100190000E4E0025307858B10024DFF83480274611
:1001A00004EB840101EB08000179012903D007E089
:1001B0002846BDE8F08107710021204600F0BCFB15
:1001C000641CE4B2162CEBD33770F1E71100002069
:1001D000080100202DE9F05F01223F4E15020024A6
:1001E0002946304601F0ADFBDFF8F0800122022104
:1001F000404601F0A6FBDFF8E8B001222021584676
:1002000001F09FFB374F01228021384601F099FB16
:1002100001222021384601F094FB012208213846B2
:1002200001F08FFB01220221384601F08AFB0122F6
:100230000421584601F085FB01221146584601F081
:1002400080FB012297033946584601F07AFB0122D0
:100250004021304601F075FB4FF480690122494688
:10026000304601F06EFB4FF4805A01225146304671
:1002700001F067FB01223946304601F062FB0122A2
:100280004946404601F05DFB01225146404601F0DF
:1002900058FB01223946404601F053FB2946124DD6
:1002A0000122284601F04DFB01224946284601F073
:1002B00048FB01225146284601F043FB0122394602
:1002C000284601F03EFB01224021584601F039FB4F
:1002D0002046BDE8F09F000000180140000C0140DE
:1002E0000010014000080140001401402DE9FC5FAE
:1002F0004FF0000BDFF85480DFF854905C464FF06D
:10030000010A5D46A8F12C0606EB4407787801281F
:1003100012D100958DF8044018F814008DF80500EE
:1003200016F8140078B18DF806500722694699F83E
:10033000000000F0B5FD7D70641CE4B2162CE3D320
:100340005846BDE8FC9F8DF806A0EEE7A20100200C
:10035000100000202DE9FC474FF0000A124DDFF895
:100360004C9054465646A5F12C0800BF05EB4407B7
:100370007878012811D100968DF8044015F8140002
:100380008DF8050018F814008DF80600072269465C
:1003900099F8000000F084FD7E70641CE4B2162C15
:1003A000E4D35046BDE8FC87A201002010000020E5
:1003B0002DE9F0479F4E4FF000098021304601F0B3
:1003C000BBFA9D4C01252178884200D065708021C0
:1003D000304601F0B1FAA178884200D0E570802162
:1003E000304601F0A9FA2179884200D06571802158
:1003F000304601F0A1FAA179884200D0E571802150
:10040000304601F099FA217A884200D06572802145
:10041000304601F091FAA17A884200D0E57280213D
:10042000304601F089FA217B884200D06573802133
:10043000304601F081FAA17B884200D0E57380212B
:10044000304601F079FA217C884200D06574802121
:10045000304601F071FAA17C884200D0E574802119
:10046000304601F069FA217D884200D0657580210F
:10047000304601F061FAA17D884200D0E575802107
:10048000304601F059FA217E884200D065768021FD
:10049000304601F051FAA17E884200D0E5768021F5
:1004A000304601F049FA217F884200D065778021EB
:1004B000304601F041FAA17F884200D0E5778021E3
:1004C000304601F039FA94F82010884201D084F8BF
:1004D00021508021304601F02FFA94F822108842F2
:1004E00001D084F823508021304601F025FA94F899
:1004F0002410884201D084F825508021304601F034
:100500001BFA94F82610884201D084F827508021E5
:10051000304601F011FA94F82810884201D084F88E
:1005200029508021304601F007FA94F82A108842B9
:1005300001D084F82B508021304601F0FDF9207065
:100540004021304601F0F8F9A0702021304601F03A
:10055000F3F920711021304601F0EEF9A071082165
:10056000304601F0E9F9354D20728021284601F02E
:10057000E3F9A0724021284601F0DEF92073202122
:10058000284601F0D9F9A0731021284601F0D4F9CA
:1005900020740821284601F0CFF9A07404212846D0
:1005A00001F0CAF920750221284601F0C5F9A075AD
:1005B0000121284601F0C0F9DFF884802076A914D3
:1005C000404601F0B9F9A076E914404601F0B4F9CB
:1005D00020772E153146404601F0AEF9194DA0772F
:1005E0007101284601F0A8F984F820003146284618
:1005F00001F0A2F984F822006E153146284601F078
:100600009BF984F82400AF153946284601F094F987
:1006100084F826003146404601F08EF984F828001F
:100620003946404601F088F984F82A004846BDE87A
:10063000F0870000000C014076010020001401400A
:1006400000100140000801402DE9F84F0020A74F9D
:1006500000904FF40071384601F06EF9A44C01256A
:100660002178884200D065708021384601F064F915
:10067000A178884200D0E57001219E4801F05CF924
:100680002179884200D06571DFF86C8210214046E4
:1006900001F052F9A179884200D0E571974E4021CE
:1006A000304601F049F9217A884200D06572102164
:1006B000304601F041F9A17A884200D0E572042168
:1006C000B346304601F038F9217B884200D065738B
:1006D00008214646404601F02FF9A17B884200D010
:1006E000E5730221304601F027F9217C884200D0D1
:1006F00065744FF400494946304601F01DF9A17C6C
:10070000884200D0E5744FF400584146304601F06D
:1007100013F9217D884200D065754FF4006A514677
:10072000384601F009F9A17D884200D0E5754146BF
:10073000384601F001F9217E884200D065764946AD
:100740006A4801F0F9F8A17E884200D0E576694F49
:100750005146384601F0F0F8217F884200D0657795
:100760004FF40051384601F0E7F8A17F884200D0ED
:10077000E57749465F4801F0DFF894F82010884299
:1007800001D084F821505E4F4FF40071384601F0DB
:10079000D3F894F82210884201D084F82350D04630
:1007A0005146384601F0C8F894F82410884201D028
:1007B00084F825504FF4005A5146384601F0BCF8F1
:1007C00094F82610884201D084F8275049463846CC
:1007D00001F0B2F894F82810884201D084F829502A
:1007E0008021304601F0A8F894F82A10884201D000
:1007F00084F82B504FF400713C4801F09DF82070B4
:1008000080213A4801F098F8A0700121394801F0A0
:1008100093F820711021384801F08EF8A071402122
:100820005D46584601F088F820721021284601F0F4
:1008300083F8A0720421284601F07EF82073082175
:100840002D4801F079F8A07302212B4801F074F8CB
:1008500020744946284801F06FF8A0745546514667
:10086000254801F069F82075464641461F4801F0C9
:1008700063F8A07529461D4801F05EF820764946C8
:100880001A4801F059F8A07631461A4801F054F898
:1008900020772946174801F04FF8A07749461548B8
:1008A00001F04AF884F820004FF40071384601F056
:1008B00043F884F822003146384601F03DF884F8C8
:1008C00024002946384601F037F884F826004946C6
:1008D000384601F031F884F828008021064801F0FC
:1008E0002BF884F82A000098BDE8F88F0018014022
:1008F000A2010020000C014000100140000801404E
:100900000014014070B50546049C0020152C01D947
:10091000012070BD04EB8406054CA555344461707C
:10092000A270044AE37001212171117070BD0000B2
:1009300008010020110000202DE9FF5F002107467B
:100940000391152803D9012004B0BDE8F09FD14CD4
:10095000D14ED24DDFF84883A314DFF848934FF40B
:10096000807C4FF4804A4FF4806B162F2ED2DFE844
:1009700007F00B1C475665748393A2B1C1D1E1FB0C
:10098000F9F8F7F6F5F4F3F20022654661462046E1
:1009900000F0D7FF0A2000F0C9FE012229462046B8
:1009A00000F0CFFF4FF40071EDE00022022130464D
:1009B00000F0C7FF0A2000F0B9FE012202213046F4
:1009C00000F0BFFF8021DEE000F0B6FFB64907EB84
:1009D00087028B5C11448DF800304A788DF8012035
:1009E0008A788DF80220C9788DF80400AF488DF818
:1009F000031005226946007800F052FA0398A3E735
:100A000000222021284600F09CFF0A2000F08EFEE4
:100A100001222021284600F094FF0121E5E0002278
:100A20008021404600F08DFF0A2000F07FFE012269
:100A30008021404600F085FF102129E1002220217D
:100A4000404600F07EFF0A2000F070FE01222021C7
:100A5000404600F076FF40211CE00022082140467D
:100A600000F06FFF0A2000F061FE012208214046DD
:100A700000F067FF10210DE000220221404600F047
:100A800060FF0A2000F052FE01220221404600F0E1
:100A900058FF0421404697E700220421284600F031
:100AA00050FF0A2000F042FE01220421284600F0F7
:100AB00048FF0821ECE000220121284600F041FF18
:100AC0000A2000F033FE00220121284600F039FF01
:100AD0000221DDE000225146284600F032FF0A20C4
:100AE00000F024FE01225146284600F02AFF4FF470
:100AF0000041CDE000224021204600F022FF0A20E4
:100B000000F014FE01224021204600F01AFF4FF4AD
:100B10000051BDE000225946204600F012FF0A2095
:100B200000F004FE01225946204600F00AFF4FF46F
:100B3000006128E000221D461946204600F001FF12
:100B40000A2000F0F3FD01222946204600F0F9FEBC
:100B50004FF4005117E08DE07BE069E058E046E09B
:100B600034E022E011E0FFE700225146204600F089
:100B7000E8FE0A2000F0DAFD01225146204600F08E
:100B8000E0FE4FF4004120461EE700225946304661
:100B900000F0D7FE0A2000F0C9FD01225946304678
:100BA00000F0CFFE4FF400611FE000221C46194602
:100BB000304600F0C6FE0A2000F0B8FD01222146B2
:100BC000304600F0BEFE4FF400510EE000225146C8
:100BD000304600F0B6FE0A2000F0A8FD0122514682
:100BE000304600F0AEFE4FF400413046ECE6002205
:100BF00064466146484600F0A4FE0A2000F096FDD7
:100C000001222146484600F09CFE4FF400712FE07F
:100C100000225946484600F094FE0A2000F086FD66
:100C200000225946484600F08CFE4FF400611FE058
:100C300000221C461946484600F083FE0A2000F0B8
:100C400075FD01222146484600F07BFE4FF400511D
:100C50000EE000225146484600F073FE0A2000F0E4
:100C600065FD01225146484600F06BFE4FF40041FD
:100C70004846A9E600224021284600F062FE0A20EC
:100C800000F054FD01224021284600F05AFE802148
:100C9000284699E600180140000C01400010014070
:100CA000000801400014014008010020100000204D
:100CB000FEE7000000B58BB0002001210E4ACDE90F
:100CC00005010791127804905201CDE900204CF201
:100CD0000702029248F20C0203920E220748CDE965
:100CE00008120068416941F0020141616946034808
:100CF00000F0F2F80BB000BD10000020440000200E
:100D000070B51A481A4C00F124011A4D48630020AE
:100D100020700421284600F00FFE012803D120781E
:100D200040F0080020700821284600F005FE012848
:100D300003D1207840F0040020701021284600F0F4
:100D4000FBFD012803D1207840F002002070202113
:100D5000284600F0F1FD012803D1207840F0010081
:100D60002070BDE87040FFF7A5BF00002000002004
:100D7000100000200018014010B5002958D0826BE7
:100D80004FF4D873046803EB0113E45814F004041F
:100D900094600468E4584DD0E40854600468E35853
:100DA00003F00203D3604FF4DA73046803EB01131A
:100DB000E45804F00F04146111620468E358C3F3AB
:100DC0000723D3614FF4DC73046803EB0113E45889
:100DD00014750468E458240A54750468E458240C13
:100DE00094750468E3581B0ED3754FF4DE730468E2
:100DF00003EB0113E45814760468E458240A54768B
:100E00000468E458240C94760468E3581B0ED376E7
:100E10000368202289B11A610268536923F05003E4
:100E2000536190F83C20222A0DD0322A0BD00FE0DB
:100E3000426BA5E7640D1460B0E7DA60026853699D
:100E400023F00A03ECE70268536923F40F4353616C
:100E500012220123002990F83C1006D0522915D007
:100E6000622916D0722906D115E042290ED06229D6
:100E700008D0722908D080F83C3000BF00F06DFB2C
:100E8000002010BD322107E0522105E080F83C200F
:100E9000F4E7222100E0422180F83C10EEE7000058
:100EA00030B587B06B46009000200390049202900A
:100EB00004E00C5C1D18401C2C7580B29042F8D3E5
:100EC00003484FF6FF71036300F048FB07B030BDE5
:100ED0004400002070470000F0B50C7D012303FAA8
:100EE00004F20468D4F800524E6A25F47C5503EBF2
:100EF00006231D43C4F800520368D3F81C429443F0
:100F0000C3F81C424FF41073CD691C1DBDB90568B0
:100F1000D5F80C629643C5F80C628E894D684F690E
:100F200066F31F45066803EBC707F5510E890D6888
:100F30004F6966F31F45066804EBC707F551CD6995
:100F4000012D17D10568D5F80C621643C5F80C625F
:100F50000E884D684F6966F31F45066803EBC703AB
:100F6000F5500D89CB684E6965F31F43056804EBA6
:100F7000C6042B518B69002B0368D3F8044211D0AF
:100F800054EA0204C3F804420B69002B0368D3F847
:100F9000144209D054EA0204C3F81442096A012930
:100FA00004D009E09443EDE79443F5E70168D1F8F4
:100FB0001C321343C1F81C320068D0F8001221F033
:100FC0000101C0F800120020F0BD70472DE9F0418A
:100FD000044600680026C168C1F300134169C1F3EB
:100FE000C002102113B10AB14E01C160206802692C
:100FF0004369C2F30012C3F380131AB113B146F46C
:1010000080660161216848694FF00105C043C0074F
:101010004ED18A687648904323D000208B68754A69
:101020009A4320D000228F68734BBB431DD000230E
:10103000104318433CD088688A68C0F340008B682E
:10104000C2F3402203F001031043184329D04A6938
:10105000204622F001024A6194F83C10122906D081
:101060000AE00120DAE70122DDE70123E0E7016879
:101070004A6922F40F424A6190F83C10422908D094
:10108000522908D0722908D080F83C5000F04CFB5F
:1010900009E0222102E0322100E0622180F83C10C8
:1010A000F4E746F4006620688168544A1143816081
:1010B0002168C868496910F0030FC1F3400104D0EA
:1010C00019B100212046FFF757FE216808694969D8
:1010D00010F0030FC1F3001104D019B10121204613
:1010E000FFF74AFE206C3043206420688169426922
:1010F00011F0010F4369C2F30022C3F3C03305D0DE
:1011000022B11BB1216C41F0010121648169C1F35D
:1011100040034169C1F340224169C1F3C0312BB1A1
:1011200022B119B1216C41F0020121648169C1F33E
:10113000800341694269C1F38021C2F3C0322BB1FF
:1011400021B11AB1216C41F004012164816911F0CF
:10115000700F08D000224169C1F3C0234169C1F377
:10116000C03112B121E00122F5E7F3B1E9B18169A3
:1011700001F0700140292FD006DC102909D0202968
:101180000BD030290DD123E0502929D0602908D176
:101190002AE0216C41F0080102E0216C41F01001CD
:1011A0002164816921F070018161206C00280DD0DB
:1011B00021680420486084F83C502068416948F662
:1011C0005B72914341612046FFF7FFFEBDE8F0816D
:1011D000216C41F02001E3E7216C41F04001DFE7A1
:1011E000216C41F08001DBE7216C41F48071D7E78D
:1011F00001000004000100080000011009050100C1
:101200002DE9F04104004FF0000504D094F83C00B3
:10121000002618B107E00120BDE8F08184F83D60A8
:10122000204600F083F8022084F83C002068016822
:1012300021F0020101602068016841F001010160B4
:1012400000F084FB07464FF0030804E000F07EFB4B
:10125000C01B0A2853D820684068C007F6D0216810
:101260004868C00758D0A069012801D145F0800521
:10127000E06901282FD025F04000226A012A2DD0F4
:1012800020F02000626A012A2BD020F01000A26A10
:10129000012A29D020F00800E26A012A27D020F094
:1012A00004000A6822F0FC0202430A60D4E9020149
:1012B0000843D4E90412114308436168491E0843F6
:1012C0002168C8612068016821F00101016000F017
:1012D0003DFB054618E045F04000CEE740F0200019
:1012E000D0E740F01000D2E740F00800D4E740F02B
:1012F0000400D6E700F02AFB401B0A2804D904F8B2
:101300003C8F0320667087E720684068C007F1D1F2
:1013100020684068C00703D0042084F83C007AE7C6
:101320002664012084F83C00002075E710B50068B1
:10133000114986B088421DD11048C16941F0007141
:10134000C161C0690E4C00F0007004904FF4006061
:1013500000900020019002906946204600F0F8F9C4
:10136000A0140090022001900320039069462046BB
:1013700000F0EEF906B010BD00640040001002401D
:10138000000801402DE9F84F17460D00044602D031
:10139000012D2BD010E094F83C0022282ED094F898
:1013A0003C0042282AD000BF94F83C00622825D097
:1013B00094F83C00722821D094F83D0001281DD0FB
:1013C000012684F83D60622094F83C2072214FF0A1
:1013D00042094FF0220A4FF0520B95B1122A1AD04F
:1013E000222A19D0422A1AD0322015E094F83C0063
:1013F000322803D094F83C005228D5D10220BDE811
:10140000F88F122A05D0322A06D0522A07D0504629
:1014100002E0484600E0584684F83C0001E084F8C9
:101420003C1000F093FA4FF0000800900EE0781C9A
:101430000CD02FB100F08AFA0099401AB84205D9B1
:10144000032084F83C0084F83D80D8E72068EDB3A1
:10145000D0F8100010F0030FE9D0C5B3D4F838006D
:101460004FF4D871226801EB0511525812F00402B2
:1014700082602268525850D0D20842602268515887
:1014800001F00201C1604FF4DA71226801EB05112D
:10149000525802F00F02026122685158C1F307212D
:1014A000C0E907154FF4DC71226801EB05115258B1
:1014B000027522685258120A427522685258120C5C
:1014C000827522685158090EC17501E021E022E0C1
:1014D0004FF4DE71226801EB051152580276226842
:1014E0005258120A427622685258120C82762268AA
:1014F0005158090EC17620202268122185B1106151
:1015000094F83C0052281FD0622820D0722810D1B5
:101510001FE0C0689EE7606BA2E7520D0260ADE776
:10152000D06094F83C0042280ED0622808D072287F
:1015300008D084F83C6000BF84F83D8000205EE75E
:10154000322007E0584605E084F83C10F4E75046A6
:1015500000E0484684F83C00EEE770472DE9F05F74
:101560000E46016804468868400105D48868000179
:1015700002D48868C0006FD594F83D0001280CD0D3
:10158000012784F83D7094F83C00222808D03228C6
:1015900008D062280ED0122005E00220BDE8F09F9E
:1015A000422000E0522084F83C008868400103D5C6
:1015B000002507E07220F6E78868000101D50125C3
:1015C00000E002254FF4C07000EB05100A5802F04D
:1015D00001020A50216B8A68EAB3D4F800C05CF8B3
:1015E00000301343CA68496842EAC1010B434CF812
:1015F0000030216B0A7C02F00F020A614FF4C271C5
:10160000226801EB0511535823F00F035350226851
:101610005358D4F830C0DCF810C043EA0C035350E0
:10162000216B4FF4C47303EB05130A7DD1F8151039
:1016300042EA01222168CA50216B4FF4C67303EBC2
:1016400005130A7ED1F8191042EA01222168CA5016
:1016500021680A5801E00DE05AE042F001020A5008
:1016600000F074F981464FF00008DFF8B0A0DFF811
:10167000B0B026E022681358D1F80CC0098843EABC
:101680000C0343EA41511150B3E7701C19D02EB13D
:1016900000F05CF9A0EB0900B04212D9032084F8F5
:1016A0003C004DB1012D09D04FF400002168886045
:1016B00084F83D80032071E78020F7E74FF4004075
:1016C000F4E7ADB12068012D816816D01548884334
:1016D0000028DAD194F83C00422811D0522811D0C9
:1016E000722813D084F83C7084F83D80002055E7C0
:1016F000206881682AEA0100EAE72BEA0100E7E7AF
:10170000222000E0322084F83C00EDE76220FAE776
:10171000042084F83C00012040E7000001000004A0
:1017200000010008000001107047000070B5044679
:1017300000F00CF90546601C02D00448007804440F
:1017400000F004F9401BA042FAD370BD0400002051
:101750002DE9F84FDFF8B8A100220AF1040B144676
:1017600001274FF00F090BF1040E00BF0B6807FAB9
:1017700004F52B40AB4274D1DFF898C14E68A6EB5C
:101780000C0866452BD00DDC032E34D005DC36B3B7
:10179000012E19D0022E2FD11BE0112E16D0122EA1
:1017A0002AD119E0B8F5881F19D006DCB8F5803FBA
:1017B00015D0B8F5801F1FD111E0B8F5001F0ED06D
:1017C000B8F5041F18D10AE0CA6815E0CA68121DEE
:1017D00012E0CA6808320FE0CA680C320CE08A686E
:1017E0002AB1012A4FF0080203D0456104E0042227
:1017F00002E0056100E00022FF2B01D8064601E06F
:1018000000F104064FEA840501D9A5F12005D6F8B8
:1018100000C009FA05F82CEA080C02FA05F54CEAB2
:10182000050CC6F800C04D68ED006AD53A4DAE69AA
:1018300046F00106AE61AD6924F0030605F001052E
:101840000095364D06EB050CDCF80850A6074FEA6C
:10185000167809FA08F6B543314EB04202D1002697
:101860001AE04EE02F4EB04201D1012614E02E4E78
:10187000B04201D102260FE02C4EB04201D1032626
:101880000AE02B4EB04201D1042605E0294EB042B9
:1018900001D1052600E0062606FA08F62E43CCF80C
:1018A00008604D68DAF80060ED03554601D51E4327
:1018B00000E09E432E604D68AD0305D5DBF8006067
:1018C0001E43CBF8006004E0DBF800509D43CBF8EA
:1018D00000504D68DEF80060ED02754601D51E43EC
:1018E00000E09E432E604D68AD0205D5084D0C35D5
:1018F0002E681E432E6004E0054E0C3635689D436D
:101900003560641C102CFFF431AFBDE8F88F000087
:1019100000040140000011100010024000000140CE
:1019200000080140000C014000100140001401407B
:1019300000180140001C01408068084000D00120D0
:1019400070470AB1016170470904FBE701488068EC
:1019500070470000040000200248816802781144AA
:101960008160704704000020074810B5016841F00D
:1019700010010160032000F095F8002000F006F847
:1019800000F024F8002010BD0020024070B50D4D7D
:1019900004464FF47A712878B1FBF0F00A490968DF
:1019A000B1FBF0F000F005FB48B9102C07D2002283
:1019B0002146501E00F056F800206C6070BD0120DA
:1019C00070BD000004000020000000201D4808B584
:1019D000816941F001018161806900F0010000909E
:1019E000032000F05FF8002211466FF00B0000F0BA
:1019F00039F8002211466FF00A0000F033F8002297
:101A000011466FF0090000F02DF800221146501F1A
:101A100000F028F800221146101F00F023F80022E1
:101A20001146901E00F01EF800221146501E00F0D4
:101A300019F80548416821F0E06141F0007141600A
:101A400008BD0000001002400000014000F01F022D
:101A5000012191404009800000F1E020C0F8001110
:101A600070470000F0B40E4B1B680C46C3F3022312
:101A7000C3F10705042D00D90425191D072901D23A
:101A8000002300E0DB1E012606FA05F1491E214075
:101A900099409E40761E16403143F0BC00F0CCBD0C
:101AA0000CED00E0064900F0070208684FF6FF035E
:101AB000184040EA0220034A1043086070470000C3
:101AC0000CED00E00000FA052DE9F047DFF83C815D
:101AD00005460E46D8F8000000F00700B0420CD2D0
:101AE000D8F8001021F007013143C8F80010D8F8E9
:101AF000000000F00700B04263D12878444C800712
:101B000005D56068A96820F0F00008436060287877
:101B1000C00745D06868012816D02168022816D071
:101B2000890700294DDA616821F0030101436160F2
:101B3000FFF70CFF6968074641F2883001290FD092
:101B40000229814619D027E021688903E9E7890144
:101B5000E7E700BFFFF7FAFEC11B494501D918E0CE
:101B600081466068C0F381000128F3D118E000BF0E
:101B7000FFF7ECFEC11B49450BD86068C0F381003C
:101B80000228F5D10CE000BFFFF7E0FEC11B49457C
:101B900002D90320BDE8F087606810F00C0FF3D184
:101BA000D8F80010404601F00701B1420BD9016896
:101BB00021F0070131430160006800F00700B042E6
:101BC00001D00120E6E72878400705D56068E9687C
:101BD00020F4E060084360602878000706D560685C
:101BE000296920F4605040EAC100606000F01CF8F0
:101BF0006168084AC1F30311515CC8400649086096
:101C00000020FFF7C3FE0020C4E7000000200240D0
:101C10000010024070290008000000200148006800
:101C2000704700000000002012A185B00FC98DE8A8
:101C30000F0014A0144A006804905168134801F082
:101C40000C03042B10D0082B0ED1C1F38343C9031E
:101C50001DF803000AD5516804AAC1F34041515C44
:101C60000A4A5043B0FBF1F005B0704708494843B9
:101C7000FAE7000002030405060708090A0B0C0D29
:101C80000E0F1010010200000010024000127A0036
:101C900000093D002DE9F84F04460078B94DC00712
:101CA00048D06868C0F38100012807D06868C0F395
:101CB0008100022809D16868C00306D5286880031E
:101CC00038D5606800286FD034E06068B0F5803F98
:101CD0000BD010B1B0F5A02F11D0286820F48030BF
:101CE0002860286820F4802002E0286840F48030D2
:101CF0002860606888B1FFF729FE064609E0286879
:101D000040F480202860F0E7FFF720FE801B642865
:101D100075D828688003F7D50CE0FFF717FE064654
:101D200005E000BFFFF712FE801B6428F0D828688A
:101D30008003F7D42078944E80074FF001094FF0CC
:101D400000083BD5686810F00C0F07D06868C0F336
:101D50008100022809D16868C00306D4286880077A
:101D600014D5206901281FD110E02069B0B1C6F850
:101D70000090FFF7EBFD074605E000BFFFF7E6FD2B
:101D8000C01B0228C4D828688007F7D52868616975
:101D900020F0F80040EAC10028600FE0C6F800809B
:101DA000FFF7D4FD074606E0E9E000BFFFF7CEFDF0
:101DB000C01B022823D828688007F7D420780007A2
:101DC0002CD57248A169D9B1C0F80090FFF7BEFDCB
:101DD000074604E0FFF7BAFDC01B02280FD8686A67
:101DE0008007F7D56A484FF4FA510068B0FBF1F06C
:101DF000009000BF0098411E0091FAD20EE080E0F2
:101E0000C0F80080FFF7A2FD074604E0FFF79EFD43
:101E1000C01B022875D8686A8007F7D4207840076D
:101E200060D5E8690027C00008D4E86940F0805018
:101E3000E861E869012700F080500090554801688A
:101E4000C90513D40168834641F480710160FFF72E
:101E50007DFD824606E000BFFFF778FDA0EB0A009B
:101E600064284ED8DBF80000C005F5D5E0680128ED
:101E70000AD008B1052813D0286A20F00100286292
:101E8000286A20F0040002E0286A40F0010028627D
:101E9000E06841F2883B98B1FFF758FD82460BE0BD
:101EA000286A40F004002862EEE700BFFFF74EFD0D
:101EB000A0EB0A0159455AD8286A8007F6D50CE0EC
:101EC000FFF744FD824605E0FFF740FDA0EB0A0165
:101ED00059454CD8286A8007F6D41FB1E86920F02C
:101EE0008050E861E06988B36968C1F38101022923
:101EF00045D00228C6F8608004D0FFF727FD0446CD
:101F000038E034E0FFF722FD074604E0FFF71EFD4E
:101F1000C01B02282BD828688001F7D4206AB0F5AE
:101F2000803F05D16868A16820F4003008436860EC
:101F3000D4E908010843696821F474110843686012
:101F4000C6F86090FFF702FD044606E015E000BF0A
:101F5000FFF7FCFC001B022809D828688001F7D590
:101F60000BE000BFFFF7F2FC001B022802D90320A0
:101F7000BDE8F88F28688001F4D40020F8E701203C
:101F8000F6E7000000100240000042428004424296
:101F900000000020007000404FF0E0210428086994
:101FA00003D020F004000861704740F00400FAE715
:101FB000704710B5401EB0F1807F01D3012010BDE5
:101FC0004FF0E02460610F21601700F035FB002026
:101FD000A06107202061002010BD10B5FFF7E8FFC9
:101FE00010BD7047704730B590F83C20012A20D0D2
:101FF000012280F83C20022380F83D3003685C68B1
:1020000024F070045C6003685C680D682C435C60BD
:1020100003689C6824F080049C6003689C6849689D
:102020000C439C6080F83D20002180F83C1008465D
:1020300030BD022030BD10B5040003D094F83D003F
:1020400010B107E0012010BD002084F83C002046BC
:1020500000F00CF8022084F83D00211D206800F0FB
:1020600069FB012084F83D00002010BD08B50C4A32
:1020700001680C48914207D1C16941F00401C16176
:10208000C06900F0040009E0074A914207D1C16924
:1020900041F00801C161C06900F00800009008BD6E
:1020A0000008004000100240000C00400168CA68AF
:1020B00042F00102CA600068016841F0010101605C
:1020C0000020704770B5044690F83C00012817D0F6
:1020D000012584F83C50022084F83D002068826885
:1020E00022F0770222F47F4282600868502837D0BD
:1020F0000DDC202859D005DC88B3102841D151E0EF
:10210000022070BD302853D040283AD13FE06028EB
:102110002ED070280BD0B0F5805F03D0B0F5005FF3
:102120002FD110E02068816821F0070115E0CB680D
:10213000D1E90121206800F043FB2168886840F064
:10214000770088601DE0CB68D1E90121206800F0AC
:1021500037FB2068816841F48041816011E01EE016
:10216000CA684968206800F03DFB5021206806E0FD
:10217000CA684968206800F046FB6021206800F0CA
:1021800029FB84F83D50002084F83C0070BDCA68EB
:102190004968206800F026FB40212068EFE7002115
:1021A0002068ECE710212068E9E720212068E6E7B5
:1021B00030212068E3E7704770B504460068016984
:1021C0004FF00005C943890715D4C168C943890781
:1021D00011D4E91E01610120207720688069800701
:1021E000204602D0FFF7E7FF04E000F098F8204611
:1021F00000F096F8257720680169C943490717D48C
:10220000C168C943490713D46FF00401016102207A
:1022100020772068806910F4407F204602D0FFF7C5
:10222000CAFF04E000F07BF8204600F079F825773B
:1022300020680169C943090716D4C168C943090761
:1022400012D46FF008010161042020772068C06972
:102250008007204602D0FFF7AEFF04E000F05FF8F1
:10226000204600F05DF8257720680169C943C9065A
:1022700017D4C168C943C90613D46FF010010161B6
:10228000082020772068C06910F4407F204602D0E3
:10229000FFF791FF04E000F042F8204600F040F81C
:1022A000257720680169C943C90708D1C168C943B6
:1022B000C90704D1891E0161204600F033F8206867
:1022C0000169C943090609D4C168C943090605D48F
:1022D0006FF0800101612046FFF783FE20680169ED
:1022E000C943490609D4C168C943490605D46FF0FA
:1022F00040010161204600F03BF820680169C943B4
:1023000089060BD4C168C943890607D46FF0200140
:1023100001612046BDE87040FFF764BE70BD7047A4
:102320007047000010B50F49036801220C680021B6
:102330000D489C4208D10489641CA4B20481B4F500
:10234000FA7F01D382710181084C24689C4207D135
:1023500043895B1C9BB24381632B01D9C2714181CC
:1023600010BD00008800002012000020C8000020DE
:102370007047FEE7114810B50F4901602D214160FB
:1023800000214FF440328160C0E903124FF4001283
:10239000C0E905210122C0E907214162C0E90A1212
:1023A000FEF72EFF002805D0BDE81040472104A00D
:1023B00000F073BA10BD000000640040440000202B
:1023C0002E2E2F5372632F63616E2E630000000068
:1023D0002DE9F04F554885B0816941F04001816198
:1023E000816901F040010491816941F0100181612E
:1023F000816901F010010491816941F0040181615A
:10240000816901F004010491816941F00801816151
:10241000816901F008010491816941F02001816125
:102420008069DFF80CA100F0200045F240550490CF
:10243000012229465046FFF784FADFF8F8B044F24B
:102440006507012239465846FFF77BFA01228A21A7
:102450003948FFF776FA002220213748FFF771FA52
:1024600045F20278012241463448FFF76AFA4FF4F8
:10247000AA49012249463248FFF763FA00244AF686
:10248000BE20CDE90004694650460294FFF760F98A
:102490000095012502266946504603960195FFF7EF
:1024A00057F94BF69A70CDE90004694658460294F4
:1024B000FFF74EF9CDE90075694658460396FFF7D8
:1024C00047F9AA20CDE90005694603961A48FFF7A7
:1024D0003FF948F25470CDE9000469461648029469
:1024E000FFF736F94AF6F900CDE9000469461348CA
:1024F0000294FFF72DF9CDE9008569460F48039650
:10250000FFF726F9CDE9009569460D480396FFF7D8
:102510001FF94AF6FF20CDE90004694608480294F5
:10252000FFF716F905B0BDE8F08F0000001002407B
:10253000001801400010014000080140000C01405B
:102540000014014010B5184886B0164901604721B3
:102550000024C0E9011440F2E731C0E903148461AA
:10256000FFF769FD18B1402110A000F096F94FF473
:102570008050009069460C48FFF7A4FD18B1462131
:102580000AA000F08AF9049404A907480594FFF70B
:102590002AFD002803D04D2104A000F07EF906B0EA
:1025A00010BD000000080040880000202E2E2F5390
:1025B00072632F74696D2E630000000010B5184817
:1025C00086B01649016040F60F610024C0E901148D
:1025D00040F2CF71C0E903148461FFF72CFD18B1FC
:1025E0005F2110A000F059F94FF480500090694627
:1025F0000B48FFF767FD18B165210AA000F04DF9FF
:10260000049404A906480594FFF7EDFC002803D0C4
:102610006C2104A000F041F906B010BD000C004090
:10262000C80000202E2E2F5372632F74696D2E6305
:1026300000000000FEE770470907090E002806DACF
:1026400000F00F0000F1E02080F8141D704700F149
:10265000E02080F8001470477047704710B5FFF70E
:102660007BF9BDE81040FFF7B8BC30B58FB0012151
:102670000804CDE900100024029402250491CDE95C
:1026800007504FF4E01009906846FFF703FB00B1D4
:10269000FEE70F20CDE90A054FF48060CDE90C403C
:1026A00002210AA80E94FFF70FFA00B1FEE7FFF728
:1026B000B5FA4FF47A71B0FBF1F0FFF77AFC042021
:1026C000FFF76AFC00221146501EFFF7CBF90FB04E
:1026D00030BD00000D48016841F001010160416812
:1026E0000B4A1140416001680A4A114001600168CB
:1026F00021F480210160416821F4FE0141604FF422
:102700001F0181600449C003086070470010024047
:102710000000FFF8FFFFF6FE08ED00E00148FFF7BC
:102720004BBD0000880000200148FFF745BD0000B8
:10273000C8000020F0B502681C4B1D4D1D4E1E4FF9
:102740001E4C4FF0804C984209D0A04207D0604503
:1027500005D0A84203D0B04201D0B84204D122F043
:10276000700E4A6842EA0E02984209D0A04207D091
:10277000604505D0A84203D0B04201D0B84203D191
:1027800022F44075CA682A4322F080054A692A4328
:1027900002608A68C2620A688262984201D0A042DE
:1027A00001D10969016301214161F0BD002C0140A3
:1027B0000004004000080040000C004000340140CC
:1027C00010B5846842EA032224F47F440A4322437A
:1027D000826010BD826822F070020A4342F0070155
:1027E0008160704710B5036A046A24F00104046232
:1027F000846924F0F00444EA021423F00A020A4334
:102800008461026210BD10B5036A23F010030362F5
:102810008369046A23F4704343EA023224F0A0037C
:1028200043EA01118261016210BD000010B5FF2270
:1028300000211048FEF7A6FD0F48104A01781278D3
:10284000914211D10E4A012111700E4A017D117081
:102850000D4A417D11700D4A817D11700C4AC17D78
:1028600011700C49007E0870BDE810400148FEF769
:10287000ADBB00004400002020000020100000201C
:10288000120000201300002014000020150000207A
:102890001600002017000020FEE7FEE702E008C84F
:1028A000121F08C1002AFAD170477047002001E0CA
:1028B00001C1121F002AFBD17047000008B5FFF7C5
:1028C00053F8FFF7D2FEFFF783FDFFF753FDFFF745
:1028D00039FEFFF773FE002211461420FFF7C2F8FD
:1028E0001420FFF7B3F8002211461E20FFF7BAF8B4
:1028F0001E20FFF7ABF8002211463220FFF7B2F896
:102900003220FFF7A3F8FEF7FBF9FDF763FC15484B
:10291000FFF7CCFB1448FFF7C9FB144C00252078C7
:1029200001280FD12570607900902379E278A17891
:102930006078FDF7E7FF6570A570E570257165713A
:10294000FDF724FCA07940B1A571FDF731FDFDF73D
:10295000CDFCFDF779FEFDF7FDFCE0790128DED125
:10296000E571DCE788000020C8000020120000208C
:10297000000000000000000001020304060708092F
:10298000A029000800000020200000009C2800086A
:10299000C029000820000020B0050000AC28000875
:1029A00000A24A0401000000100000000000000026
:1029B0000000000000000000000000000000000017
:0400000508000131BD
:00000001FF
